:20000000003C0120E169010039FB021039FB021039FB021039FB021039FB021039FB021094
:1C00200039FB021039FB021039FB021039FB021039FB021039FB021011FB021002
:20003C002DE9F04FCB4DD3A04FF0FF3AA862AB46C5F82CA0ADF12C0DCBF834B00820286397
:20005C0040201BF0B8FC00263146C34BCBF8380018B1CA00865082185360491C0829F7DBA1
:20007C00C7A02860C5F804A0EE600727AF6038201BF0A1FC0028286120D0C4A10160B74F1C
:20009C004760C7A48460B64BC36017D0066105F11401416112D0C7A18161B24FC7610DD0FD
:2000BC00066205F12801416208D0C7A18162AE4FC76203D0066305F1B4014163C5A06861F8
:2000DC000F27EF61C5F818A07820C5F820B01BF072FC05F1B40405F128073146A34B686269
:2000FC0018B1CA00865082185360491C0F29F7DBEE6305206864C5F840A02820AF641BF07A
:20011C005AFC0028E86416D0B4A10160E14F4760866005F1A003C3600DD0B3A10161DE4F24
:20013C00476108D0866105F18C01C16103D0B3A10162DA4F4762B4A0C5F8A0000427C5F8A2
:20015C00A87005F13C030993C5F8A4A02020C5F8AC301BF030FC0746002FC5F8B0700FD051
:20017C00ACA03860CE487860ADA1B960F86007D0AEA13961B0A2786107F118031A60F86101
:20019C00B0A0C5F8B4000327C5F8BC70C5F8B8A01820C5F8C0B01BF00EFC0028C5F8C40037
:2001BC000CD0066005F150014160866005F16407C76003D0066105F178014161A5A028656E
:2001DC000327AF65C5F854A01820EC651BF0F3FB002828660ED005F59A71B24A016005F5A2
:2001FC009A71426001F124038360C26002D04831016142619BA06866EF66C5F868A018206D
:20021C002C671BF0D8FB002868670ED005F1C801A54A016005F1C801426001F12403836010
:20023C00C26002D048310161426192A0A8670627C5F88070C5F87CA03020C5F884401BF060
:20025C00BAFB0746002FC5F888701FD005F515709649386005F51570796000F12402BA602E
:20027C00F96013D000F148023A6107F11803796100F16C021A60F96108D000F190023A6239
:20029C0007F128037962B4301860F9627DA0C5F88C000527C5F89470C5F890A02820C5F848
:2002BC0098401BF088FB0746002FC5F89C701BD005F5D0707E49386005F5D070796000F1EF
:2002DC002402BA60F9600FD000F148023A6107F11803796100F16C041C6000F19002F9610D
:2002FC0007F12004226079621CF094F817F0CAF8071C00F0AD831AF05DFC6E49844630466B
:20031C0031F80C4F002C40F09F834FF6F878A1F800804F60684C8E60796820706046A16187
:20033C001AF020FE5046314615F0E4FE314652466061284619F0B0FE05F11400DFF87C91A2
:20035C0067690890002F00F0C580AD68002D00F0C1800DE0E8140020754C0100D1C30000E3
:20037C00A5B2010091B20100D9270100391C0100A6E0C046576F726B207769746800C0465D
:20039C004D756C74692D526F6C6500C0446973636F766572204465766963657300C046C0CF
:2003BC0053746F7020446973636F766572696E6700C046C043616E63656C20436F6E6E65BF
:2003DC006374696E6700C04641647665727469736500C046436F6E6E65637400474154543F
:2003FC00205265616400C046436F6E6E656374696F6E2055706461746500C0464469736323
:20041C006F6E6E65637400C04741545420577269746500C05772697465203078303000C06B
:20043C005772697465203078353500C05772697465203078414100C05772697465203078BB
:20045C00464600C050485920507265666572656E636573004164766572746973696E672011
:20047C00504859005363616E6E696E672050485900C046C0496E697469616C697A652050E5
:20049C00485900C050485920507265666572656E636500C07D78010065F30000F5A7010024
:2004BC0011310100B1F0000089590100F55F01001143010040210020E819002010270020B6
:2004DC004846076107210170CF49C160584618F0E9FD6769484601783246D6A3384619F05D
:2004FC006EFC08983146524619F0D6FD04F14405314628461BF08AFFD448E56141F28832E5
:20051C003346D349009004F1700017F05DF9D14D05F1180005F10C0110F0EAFFCE49A860A1
:20053C001BF024F9CD4FA8684FF4E0213A46521E18F010FDA8684FF4E0213A4618F00AFD1F
:20055C00C74FA8684FF0C0513A46521E18F002FDA8684FF0C0513A4618F0FCFCD74900967C
:20057C0005F12400C822334617F02EF9D448686008F1050017F0DCFDD24DD3493246152307
:20059C0005F12600009010200AF036FACF491020324602230AF030FAD6491020FB2240F68E
:2005BC0048030AF029FAD44910200AF025FA207819F0A6FAD549024610200AF01DFA4FF426
:2005DC00806001212A4607F07BF86A1C40F20240012107F075F8AA1C40F20340012107F04F
:2005FC006FF8EA1C40F20640012107F069F82A1D40F21140012107F063F86A1D40F21B402E
:20061C00012107F05DF8AA1D40F20D40012107F057F8EA1D40F21240012107F051F805F1BF
:20063C00080240F20C40012107F04AF805F109024FF48360012107F043F805F10A0240F20C
:20065C000F40012107F03CF805F10B0240F20740012107F035F805F10C0240F21440012174
:20067C0007F02EF805F10D0240F21640012107F027F805F10E0240F21540012107F020F8BE
:20069C00C249102052460AF0B7F9C149102052460AF0B2F91020BF4F0090BF4AC84813232D
:2006BC003946019010200AF0A7F920201BF083F90146C5488146816069B108F1070018F05F
:2006DC007BFDC249102009F1140200901123019139460AF091F9032301208DF81B300227A2
:2006FC008DF819004FF0040B8DF81A70C1498DF81CB004AB30460A6809791A600DF11902DC
:20071C00197101210FF01AFF01200DF11A0201460FF014FF01210DF11B0238460FF00EFF9E
:20073C000320012107AA0FF009FF052104AA58460FF004FF04F1200004F13C02C149C9F819
:20075C00040010200AF058F9207819F0D9F9C349024610200AF050F9207819F0D1F9C04950
:20077C00024610200AF048F9207819F0C9F91035BC49009703460C22102001950AF03CF9FA
:20079C00B34604F58470B84D0890A06959464FF0404253461BF036FE5FEA0008F5D0CDF89E
:2007BC0008B003A806A902AA15F046FC002840F02A819DF80C000DF10E0118F04BFF0028ED
:2007DC0040F01E81BDF80E00ADF80C001AF0BEF8BDF80C00102840F0118120789DF81810EA
:2007FC00884240F00B81029801884FF6FF728A4200F004810178913900F098801F3905D0C5
:20081C00203900F0F980F9E011D40000064640881AF0B4F9C7B2082F01DB1AF0FBFB31793B
:20083C0060692A787E291DD07F2923D131898FA31AE0C0463D3D3D3D3D3D3D3D3D3D3D3D39
:20085C003D3D3D3D3D3D3D3D00C046C029290020E194010050240020418D01000E000580F0
:20087C000E000010317A85A30091521CD1B25A4619F0A5FA7288C949102001230AF0BCF893
:20089C0000284DD031790B2938D0012902D1307A0A2833D013291BD0012902D1307A12282D
:2008BC0016D00899F80000EB07104018077D002F36D030460CF0F2F932E0C046EDB0010077
:2008DC007DAE010094210020F95701001583010060692A78012919BF61786CA3317B6FA3FE
:2008FC00521C0091D1B25A4619F069FA099818F0D9FB15E00D520210397F011060692A7837
:20091C00012905D0F168097868A303E0F16C0210317B6AA30091521CD1B25A4619F04FFA58
:20093C00317906F108001BF069FD67E041780F3934D0491E58D02E3960D181780C295DD1B2
:20095C00C778DFB9C17901290BD0022908BF0FF27C1908D003290CBF0FF278190FF27C19E6
:20097C0001E00FF290192F786669808819F044FF009062A3CDF80490B91C2FE02F786669BE
:20099C00808819F039FF63A30090F5E7E1A1010045890100CD9B0100B818002082886669FC
:2009BC002978A2F206474FB341F62C42BF1A0FD182781A2A06D000925CA3491C0EE0C0463B
:2009DC0020E3010060A3F8E7201D00202CE3010082880092807868A3C91C0190C9B23046A2
:2009FC005A4619F0ECF909E00820594609F0F2FB04E0C046D2E2010001F02CFA029810B1A6
:200A1C0002981AF098FF5FEAD870FFF4BEAEE0691BF0F0FC00287FF4B8AEE06906461BF0AE
:200A3C00E5FC864208BF5E4602D0866818F0DEFB002EECD0304602F02FFC304618F0D6FB19
:200A5C00E5E7C046B9A20100401C0628FFF458AC1BF005F80BB0BDE8F08FC046D96C021087
:200A7C002D6D0210F9C80000102700204D54552053697A653A20256400C046C0464320563D
:200A9C00696F6C617465643A2025640057726974652073656E743A20256400C05772697447
:200ABC0065204572726F7220256400C052656164207273703A20256400C046C0526561640C
:200ADC00204572726F7220256400C04632204D62707300C0436F64656400C046556E6578F8
:200AFC00706563746564205048592056616C756500C046C031204D62707300C025733A20DC
:200B1C00504859207570646174656420746F20257300C04625733A20504859206368616E63
:200B3C006765206661696C75726500C050485920557064617465205374617475733A203063
:200B5C00782530327800C046504859204368616E6765206661696C7572652C2070656572A5
:200B7C0020646F6573206E6F7420737570706F7274207468697300C0556E6B6E6F776E2038
:200B9C00436D64205374617475733A203078253034783A3A30782530327800C0D54D02106F
:200BBC0038B586B004468DF805104FF6FF720120ADF80220090ADFF8545AADF80000022312
:200BDC008DF806108DF8043069462A7820461BF009FC162803D1297820461BF0FFFB07B009
:200BFC0030BD3EB504000D461ED0DFF8240A006822461BF0EFFBFF2815D00020009000230B
:200C1C0001AA2946204610F001F960B99DF8040000F075F9C00606D59DF8040000F06FF99C
:200C3C0010F0040000D001203EBDFEB5164615244FF6FF7290420D4615D100208DF80400F6
:200C5C00DFF8C8799DF80400F97988421AD23246294600F03AF800B100249DF80400401CCC
:200C7C008DF80400EEE71BF0B1FB50B100F0A2FB40B99DF804003246294600F026F800240A
:200C9C0000E014242046FEBD7CB50D46044606214C43164600F080F8A8B900F078F890B9AD
:200CBC009DF80700002E14BF054320EA0505E9B2814206D08DF807506A460821A0B219F0DB
:200CDC00AFF9012076BD002076BD2DE9FC410646344606235C438846154600F05DF8002832
:200CFC0052D100F054F800284ED1DFF82079387A80001AF017FC040002D100F02BFA43E064
:200D1C00397AE03689062246090EB0B219F060F9002835D1204600F058F85FEA08000ED118
:200D3C003A7A9206120E0021204619F0E2FD38BB3A7A9200002120461AF060FA16E021463B
:200D5C0000F030F858B9280004D02146002000F029F810B900F0DDFB16E0A0F80080817822
:200D7C00A9420DD085700DB900210180204600F02CF8397A89062246090EB0B219F050F943
:200D9C0000F0C7FB012000E00020BDE8F6810622FF21684619F0ADBD20346A460821A0B260
:200DBC0019F016B970B5DFF864381D7A002200E0521CD4B2AC4206D231F824608642F7D117
:200DDC0001EB840070BD002070BD10B50021DFF83C280AE030F82130DB4320F8213000EB17
:200DFC008103491C9C78E4439C70137A9942F1DB10BD2DE9FE4FDFF814480646207A0F46D5
:200E1C0091469B4680001AF08DFB5FEA000803D100F0A0F90A206CE00C9D0297B246062761
:200E3C0017FB0AF7029A07F12000082100F064F88DF80400304600F09FF8227A9200FF2186
:200E5C0040461AF0DBF99DF804000090E036217A89064246090EB0B219F0E2F8009E02998C
:200E7C000643206A082200EBCA001AF0BDF9BDB10299887900232A4600F001001BF0A2FAAF
:200E9C0000281CBF9DF93C00002803D0DFF884170120087007F123002A4600F02CF8064373
:200EBC005FEA090205D007F121001C2100F024F806435FEA0B0205D007F122001C2100F0D0
:200EDC001BF806430D9A62B107F1240000F013F8054625370EAA0421B8B219F0A1F80543F1
:200EFC002E43207D08B100F09AFA40461AF022FBF0B2BDE8FE8F102180B219F091B8E0B5C0
:200F1C000623584320306A46082180B219F060F810B99DF807000EBD00200EBDDFF8EC0651
:200F3C00007808210EF0F4BF38B50025DFF8DC4619E0206A062313FB05F300EBC502203381
:200F5C00082198B219F044F858B1206A0622FF2100EBC5001AF052F9206A00EBC501002280
:200F7C00CA716D1CEDB2E1798D42E2DB207D10B1BDE8314053E231BDF8B5DFF89016DFF874
:200F9C009836C9791E680C460A4600E02A46D5B23DB1551ED2B2324412F8017C8742F5D1B5
:200FBC002C46E4B220464D1E07E01718165C7F7817541A680244401C5670A8421A68F4DB2D
:200FDC00AC4204DABDE8F840052019F029B8F1BD70B50024DFF8345600E0641CE879E3B28F
:200FFC0083420BD22B6AE6B20622FF2103EBC60019F07FFC0028F0D0E0B270BDDFF81C26C6
:20101C00117819B1DFF810060168087870BD38B500200024DFF8F45503E0E0B200F008F8A8
:20103C00641CEA79E1B2914201D20100F5D032BD2DE9F84F83465D46062313FB05F58EB08B
:20105C0005F1200701AA0821B8B218F0C1FF002873D10622FF2101A819F04BFC00286CD13F
:20107C00DFF8A865307A80001AF05CFA5FEA000903D100F06FF80A2061E01C22FF2103A8F5
:20109C001AF0BCF8327A9200FF2148461AF0B6F805F123040AAA1021A0B218F099FF60B9C5
:2010BC001022FF210AA819F024FC30B99DF80A0001A900F001001BF081F9082200F042F8EB
:2010DC0001AA0821B8B218F0ABFF8DF8000003AA05F1210000F03AF8074605F1220003AA87
:2010FC0000F034F8804603AA1021A0B218F098FF044605F1240003AA102100F028F8824609
:20111C00253503AA0421A8B248EA070718F088FF2743317A9DF800504AEA07070743890649
:20113C000BF1E0034A46090E98B218F079FF074348461AF0FFF93D4300E0002528460FB0B7
:20115C00BDE8F08FFF2101A81AF058B81C2180B218F066BF042018F099BD2DE9F84187B0C8
:20117C00FF208DF80000DFF8A454E8791AF0DAF9040003D1FFF7EEFF0A2030E01022FF215B
:20119C0003A81AF03BF8EA79FF2120461AF036F80622FFF7D7FF03AA1021022018F040FFEF
:2011BC00064603AA1021032018F03AFF06436A460121042018F034FF0746E97922460520CF
:2011DC0018F02EFF054601AA0621062018F028FF804600F09EF93E432E4348EA060008B01D
:2011FC00BDE8F081DFF824144088097818F078BEF0B5A9B006460D4614461BF0E7F808B985
:20121C001420ACE0A4220021684619F0F7FFADF800600DF12607DFF8F463F078B17B8DF8E7
:20123C000400F07B8DF8A000279861F30000B17B27908A074CBF0222002220F002001043C1
:20125C002790CA064CBF4FF48072002220F48070104327908A064CBF4FF40072002220F4F5
:20127C000070104327904A064CBF4FF48062002220F480601043279049074CBF0421002197
:20129C0020F0040008432790307C02280CBF0120002078741BF08EF8412807DB307C00B115
:2012BC0008209DF8991008438DF89900B07CB8B10121B974202206F18C010DF1390019F059
:2012DC0093FF202206F1AC010DF1590019F08CFF202206F1CC010DF1790019F085FF00E0A5
:2012FC00B874707B8DF8050090B1DFF83473102207F110010DF1060019F076FF9DF8990087
:20131C00082805D1102239460DF1160019F06CFF307B8DF8260030B11022DFF808130DF119
:20133C00270019F061FF307948B1022D18BF032D03D1279840F002002790012100E000218A
:20135C009DF899000143B0788DF8991000B1042001438DF89910684621461BF027F829B04A
:20137C00F0BD2DE9FC41154615244FF6FF72904288460DD10027A54EF179F8B2884216D2A9
:20139C002A464146FFF780FC00B100247F1CF3E71BF01CF850B100F00DF840B99DF80400D7
:2013BC002A464146FFF770FC002400E014242046BDE8F681002100910023417901AA01F0CF
:2013DC000101801D0FF022BD70B504460D4606204543082B88B0164603D1300758BF2235C4
:2013FC0000D521351C220021FFF7ADFE01AA1C21A8B218F0EDFD80B99DF81E00C01F0A2875
:20141C000BD29DF830000090F20801AB02F0010206F0010120461AF0C5FF08B070BD38B5E5
:20143C001AF0BCFF0024794D0FE0286A0622FF2100EBC40019F05DFA28B9286A00EBC401E6
:20145C0000201AF0A7FF641CE4B2E8798442ECDB31BD3EB50C46002501460095002301AA9A
:20147C0020460FF0D3FC38B99DF80400FFF747FDC00601D401203EBD00203EBD2DE9F0413F
:20149C00694F3C6806468846154603E02089B04224D02468002CF9D10C201AF043F80400F6
:2014BC0019D0268184F80A8000202060E07245B10821284619F046FB606018B900F029F80F
:2014DC000AE06060396811B93C6004E0014608680028FBD10C600CB9152018E01AF056FFF3
:2014FC0008B1002013E00120E0722A4641463046FFF77EFE04464548C06900281CBF436804
:20151C00002B03D000220021304698472046BDE8F08120461AF00EB838B505464248046839
:20153C0003E02089A84204D02468002CF9D1012032BDE07A012807D100F05CF820B13348C8
:20155C00007804210EF0E4FCE17A491CE1722846C9B200F002F8002032BD38B5022904469D
:20157C002A4D02D003290DD01EE042F6C921FFF717FB02001CBFE869002818D04368B3B188
:20159C0005210CE042F6A621FFF70AFB01001CBFE96900290BD04B684BB10246042120466F
:2015BC0001B0BDE830401847BDE8324000E031BD10B51D4A1468002101E0214624686CB14B
:2015DC0023898342F9D1206800290CBF10600860606808B119F0AEFFFFF79BFF002010BDAC
:2015FC00024604201049096819B10B899342FAD1C87A70470C48006828B1006818B1C17AA1
:20161C000029FAD17047002070470000501F0020680F0020283B0020B83A0020273B0020EF
:20163C0070380020A0380020BC3A00202DE9F04385B0064600208946009090461C46B1790D
:20165C00002304AA30460FF0E1FB20B1FFF7C0FC8DF810001BE0D4B19DF810300620434333
:20167C0023336A46102198B218F0B2FC78B91022FF21684619F03DF948B9B079314600F016
:20169C0001001AF09BFE10B1194901200870194F9DF81000F979884227D201200390009444
:2016BC0043460C980D990E9D019002914A469DF810003146FFF79DFB044655B1397A9DF89A
:2016DC0010008906E0302A46090E80B218F0A8FC0443200005D09DF81000FFF7A9FCFFF768
:2016FC0023FC204605B0BDE8F0831520FAE700BF283B0020501F00202DE9FE4FDFF82C57D8
:20171C00D5F804B0BBF1000F03D1BDE8F74F1AF039BE9BF80000DFF81867DFF81877012839
:20173C0018BF022846F2A81A40F6C41941F64C580AD004281CBF0828102805D0402818BF47
:20175C00802800F0A5816AE319F0FEFF0028FAD0012017F0C7FB20B1012017F031FE17F051
:20177C006DFB082017F0BEFB20B1082017F028FE17F064FB102017F0B5FB20B1102017F082
:20179C001FFE17F05BFB9BF8000004F07BFB0090007801281CBF0828102802D1009844682B
:2017BC0003E0009817F04AFB0446DFF88C164878002800F0D9800AF055FB19F0BBFC824680
:2017DC00DFF87416DAF800000190002CD0F804B09AF80600C87004D0019900980CF09CFE15
:2017FC00022800F0928000990A78012A0AD0022A11D0042A49D0082A00F0F280102A00F06F
:20181C001B810CE318B91AF0B9FD4044A0600120A870112113E105223A70C8B91AF0AEFDA6
:20183C004044A060DFF814266069A1681368DE69DFF80C361B78B21D03EB8303D25A09FB44
:20185C000219C0F82090A068DFF8F0150A68106160696169C97F01F0EF01C177606961699B
:20187C00C97F41F08001C17760696169C97F01F0F00141F00201C177DFF8C8056169DBF8B0
:20189C00082082184A620221A6E006223A70C8B91AF074FD4044A060DFF8AC256069A16849
:2018BC0013685E69DFF8A4351B7806F10C021B01D25A09FB0219C0F82090A068DFF8881537
:2018DC000A68D060DFF880050168087C11F03AFB60696169C97F01F0EF01C1776069616944
:2018FC00C97F41F08001C17760696169C97F01F0F00141F00201C177DFF848056169DBF8B0
:20191C00082082184A62042166E00198017880290CD10820DFF8381538700A78DBF81400DD
:20193C00012A1ABF716A0978012116E0072038709AF8060019F09EFD0446207BC10748BF54
:20195C009AF8060000F1CC80DFF804050178DBF8140001291CBF716A4978C1729AF80600EA
:20197C00DFF8D4148870B9E10098002822D000990078DFF8D4648B4512D1012809D0022849
:20199C0056D0042800F07F80082802D010284FD002E0002C4CD147E2002018F077F947E07E
:2019BC00012808D002281FD004284AD0082815D010283FD033E2002CEDD01AF0DFFC014625
:2019DC00A068514418F028FE18B91AF0D7FC4044A060112038700121A97029E0002CDAD0FB
:2019FC000820A87012212AE0052038700222AA701AF0C4FC0146A068514418F00DFEB8B911
:201A1C001AF0BCFC4044A060DFF830246069A1681368DD69DFF828341B78AE1D03EB8303A1
:201A3C00F55A09FB0519C0F82090A068116808610098F0E1002CAED01020A870132139708F
:201A5C00F6E7062038700422AA701AF097FC0146A068514418F0E0FDA8B91AF08FFC40449F
:201A7C00A0606069A16832685369DFF8E023127803F10C051201AB5A09FB0319C0F8209019
:201A9C00A0683168C8603068007C11F05BFACFE7DFF8A4134878002800F022810AF0E2F963
:201ABC0019F048FB009001680191D1F804A0DFF88813887819F03EFB0290DFF87C23009872
:201ADC008179D1709BF80000402813D10098807919F0D0FC0446207BC1070BD5009880794C
:201AFC0019F028FB052118F00FFA207B00F0FE00207399E119F022FE10F01F0F33D0012056
:201B1C0017F0F0F920B1012017F05AFC17F096F9082017F0E7F920B1082017F051FC17F071
:201B3C008DF9102017F0DEF920B1102017F048FC17F084F9A87804F0A5F983469BF8000017
:201B5C0001281CBF0828102802D1DBF8044003E0584617F073F90446002C04D0019958469D
:201B7C000CF0DAFC022800F096809BF80010012908D0022914D004294DD008290BD0102904
:201B9C0044D085E018B91AF0F9FB4044A06011203870012179E00820A8701221397075E098
:201BBC0005223A70B0B91AF0E9FB4044A060A34A6069A1681368DE69A14B1B78B21D03EBA0
:201BDC008303D25A09FB0219C0F82090A0689B490A68106160696169C97F01F0EF01C177ED
:201BFC0060696169C97F41F08001C17760696169C97F01F0F00141F00201C1779148616938
:201C1C00DAF8082082184A6202213EE01020A870132139703AE006223A70B0B91AF0AEFBFA
:201C3C004044A060884A6069A16813685E69874B1B7806F10C021B01D25A09FB0219C0F895
:201C5C002090A06880490A68D0607F480168087C11F078F960696169C97F01F0EF01C1772B
:201C7C0060696169C97F41F08001C17760696169C97F01F0F00141F00201C17771486169D7
:201C9C00DAF8082082184A620421A9705846C2E0002017F0FBFF0298009988421ED00199C4
:201CBC006B480A78802A0AD10821397000780128DAF814001ABF716A0978012109E007228C
:201CDC003A7000780128DAF814000EBF0121716A4978C1720098584A8179917001989AE0B1
:201CFC0019F02CFD10F01F0F35D0012017F0FAF820B1012017F064FB17F0A0F8082017F023
:201D1C00F1F820B1082017F05BFB17F097F8102017F0E8F820B1102017F052FB17F08EF8D9
:201D3C00A87804F0AFF80646307801281CBF0828102801D1746803E0304617F07FF804469D
:201D5C003078012808D0022816D004283BD008280DD0102832D067E0002C65D01AF00EFB75
:201D7C004044A060012111203870A97052E0002C5AD0A870122124E0052038701AF0FEFA09
:201D9C000146A068514418F047FCA8B91AF0F6FA4044A060294A6069A1681368DB699F1D59
:201DBC00274B1B7803EB8303FB5A09FB0319C0F82090A0681168086102202AE0A4B3A8702C
:201DDC001321397026E0062038701AF0D7FA0146A0681D4F514418F01FFCA8B91AF0CEFAB5
:201DFC004044A0606069A1683A685369174A127803F10C0C12013CF8023009FB0319C0F8CB
:201E1C002090A0683968C8603868007C11F09AF80420A8703046BDE8FE4F0CF06BBEBDE808
:201E3C00FE4F002017F032BFBDE8F78F543A002080E40100C80F0020780E0020500F0020C7
:201E5C00D80F0020F0D8FFFF540F0020D90F0020CC0F00202DE9F04F0646944CDFF848A2D1
:201E7C00B07894F802C0ADF12C0D002800F02081401F00F06382401E56D0401E20D00A38F8
:201E9C0003D0001F00F044820DE3B0887789B57BADF808008DF8125067B9ADF80E70F088D7
:201EBC00ADF80A003589ADF80C50B489ADF81040012000E000207A498DF8130002AAE8E274
:201EDC007849B288102002AB08F096FDF0B95546F07867692D786D1C58B90DF10A0014F0BC
:201EFC0045FD0090BDF81C1060A3480000EBC10006E00DF10A0014F039FDB178009162A335
:201F1C000190E9B20022384617F059FF04F1340018F0BEFA041C00F0C682208910F09AFCFA
:201F3C00204617F063F9BEE2B088834618F026FEC5B2082D2DDAEE0006EB0516361906F5F8
:201F5C00847637697FB1384619F095FD10B1384619F083FD38461AF00DFA384617F046F967
:201F7C00706817F043F904F1340007685E4657B180463889864203D14046394618F0C6F8F8
:201F9C003F68002FF5D1304616F0D2F8A078401EA070082D04F5847101DB19F03BF8E8009A
:201FBC0000EB051040180A3014F0E0FC009057460990397860690022CBA3C91CC9B217F05C
:201FDC00FEFEA0780090397860690022CBA3091DC9B217F0F4FECD4E94F80390F7694FF0C4
:201FFC0061084FF0010A0025AF422AD8D249002510204A4600952B4608F0FEFCA07880B9B1
:20201C0004F1700019F029FD304629464FF0FF3218F042F8304629466FF0610218F03CF896
:20203C0001E04FF071086FEA08023046414618F033F8208A584540F03682304617F032F882
:20205C0031E2706A099950F835000F2218F092F948B906F114000AFA05F1002218F01CF850
:20207C0094F80390F7696D1CEDB2BDE7557064617465643A2025732C20636F6E6E54696D1C
:20209C00656F75743A256400557064617465204661696C656420307825683A20257300C0D5
:2020BC00D9570110F9DC011010270020E81900207778002F40F0A080F7798DF80970B17A5E
:2020DC008DF80E10337A8DF80A3000258DF80C50B0798DF80B50F27A8DF80800777ABA49D9
:2020FC008DF80F2002AB8DF80D701A680A6058684860DFF8DC82B74FB449E01C424607F159
:20211C0050030090102008F077FCC0B208B118F081FF072007F114030090DFF8309301937E
:20213C00E278494610202B4608F066FCC0B208B118F070FF1520009007F13B030193E27814
:20215C0049461020012308F057FCE278C0491020922308F051FC0095DFF8DCB1E278102025
:20217C002B46594608F048FCC0B208B118F052FF201D96490090424607F16C03102008F0B0
:20219C003BFCC0B208B118F045FF0B2000901B370197227949462B46102008F02DFCC0B272
:2021BC0008B118F037FF2279A9491020922308F023FC2F4600972279102059462B4608F0A4
:2021DC001BFC514662690978C0B248B118F022FF891DB6A3C9B21046A5712A4617F0EFFD0C
:2021FC0014F048FCCE4840F6B8320123CD49009004F1940015F0E8FACB49CC4A102000238E
:20221C0008F0FAFBCA4910204FF4860208F0F4FB4FF448700122C7490090134601901020E8
:20223C0008F0EAFBDFF8108306271020002208ABADF82070414608F0DFFB012510200DF127
:20225C0022038DF822502A46414608F0D5FB10200DF122038DF822503A46414608F0CCFB77
:20227C0040F60200032208ABADF820004146102008F0C2FBDFF8C482502710202A460223A8
:20229C000097414608F0B8FB10202A4603230097414608F0B1FBB08860811C4861210022B0
:2022BC0017F0FAFEA0785746009039786069002212A3091DC9B217F082FD397860690022AA
:2022DC0083A3C91CC9B217F07AFD64693D78B01D14F04CFBED1D0090002280A3E9B2204664
:2022FC0017F06DFDDFE0C046257320697320646973636F6E6E656374656400C04E756D20D5
:20231C00436F6E6E733A20256400C046E8140020BCF1000F14BF71266126554660692978E9
:20233C00002274A3C91CC9B217F049FD86483146F24317F0B1FEB6E0ED740110B6F80A802B
:20235C0096F80CE0331D04F58477082000254FF6FF72A7F1180636F8181F8A4204D0401E87
:20237C0005F10105F7D139E0A6F8008006F10A0019689A880160BEF1040F82800CF101017E
:20239C00CBB2A3702AD1032019F015FB706018B30A2101707068A0F80180242019F00BFBDF
:2023BC00306118B9706816F021FF17E0E80000EB0510C019416800915A49006941F270728E
:2023DC00012315F001FA09E023180020990101104FA101009421002018F01CFE082D01DBD5
:2023FC0018F018FEE8004FF0000900EB0510C51904F17000A5F8089019F02DFB05F10A00CA
:20241C0014F0B4FA56468346CDF800B0317860693FA34A46C91CC9B217F0D1FCA078009054
:20243C0031786069474B4A46091DC9B217F0C7FCA0780828B4BF4FF00E084FF00F08424E8B
:20245C00F7694FF0010A4D4616E0C046D9EE00001DEF0110706A50F8350059460F2217F015
:20247C0089FF38B906F114000AFA05F2494617F013FEF7696D1CEDB2AF42EBD86FEA08017C
:20249C003046424617F008FEA078E278082804DB2B49102008F0B0FA05E02C494B46102033
:2024BC00009308F0A9FA0BB0BDE8F08F4572726F723A204661696C656420746F20537461FF
:2024DC007274204164766572746973696E672100496E697469616C697A6564004D756C7421
:2024FC00692D526F6C6520416464726573733A20257300C0436F6E6E6574696E6720617466
:20251C0074656D70742063616E63656C6C656400436F6E6E656374656420746F202573006C
:20253C0021290020E1940100896102107D950100C5690110F5F9011095390110D5F4011099
:20255C006502021018230000E8140020ED7401102DE9F84F012016F019FF012816D1DFF89A
:20257C0098663078002119F001FF040004BF002017F08CFB00202072201D0FF091FC06F089
:20259C005BFB050003D1812019F0ECFE30E301206871DFF86826DFF868064178491C4170D6
:2025BC00A879A0724020317811700EF05FFA2860616D4A78206DD10620D5816C0A68117991
:2025DC00032908D0816C0868007903280CBF0120002017F05BFB206D816C0A6890F86C0091
:2025FC0002F1080701281CBF002017F04FFB216D486F296800F5B060C8604AE0C16E0A687A
:20261C001179032908D0C16E0868007903280CBF0120002017F03AFB206DC16E0A6890F8CF
:20263C00980002F1080701281CBF002017F02EFB226DB5F87401D2F8A0102A68DFF8C43503
:20265C00DFF8C465D16097F82690B9F1030F1BD8DFE809F002050E1101F5B06101E001F575
:20267C003471D16005F59A711888088718880EE001F5355101E001F6B871D16005F59A71F3
:20269C0030880887308802E001F5B061D160A5F8740106222868DFF87465C168DFF8708596
:2026BC0001F59071C160B91C3878C0F3801085F82E0105F5947018F097FD042207F10E01AB
:2026DC0005F1240018F090FD306895F8069000F10C03042207F10E0103EB491018F084FD77
:2026FC003068AB7900EB4313032207F1120103F1100018F079FD05F12C09787D89F802006C
:20271C00022207F1160105F1300018F06DFD022207F1180105F1320018F066FD022207F1EE
:20273C001A0105F1340018F05FFDB9F808006884022207F11C0105F1360018F055FD99F8DF
:20275C000200B9F80A10400089F802000901B9F80400A9F80A104000A9F8040089B2B9F882
:20277C0006004000A9F8060003046A8C521CDB0B5A438A4201D280B230B998F80000802177
:20279C000DF0C6FB3B2133E105F12E01284619F0E5FD0520A8814FF01C0A284619F0DAFD70
:2027BC00052207F11E0105F1610018F01DFD97F82300400989F8000019F0C8FD688205F518
:2027DC009A72618D401AD08005F1610197F82300DFF8407400F01F0089F80F00284619F08E
:2027FC00B1FD616D4A78206DD1064CBF816CC16E41F62102086800210171A97938681AFBC0
:20281C0001F142520021AB791AFB03F303445980AA791AFB02F210444160616DDFF8F803E5
:20283C004A78D1060DD5DFF8F4138A7851060AD5DFF8EC23138841F20A418B4208BFDFF881
:20285C00E403C5F89C01D5F89C11284688473A68A97902F10E031AFB01F15854AA79386826
:20287C001AFB02F202440020D0733968A87901F10E021AFB00F0115C89F80D10606D417830
:20289C00CA061DD595F8960108B917F0FFF9A97938681AFB01F1014495F89601421E0A7466
:2028BC00A87939681AFB00F00844002141743A68A97902F112001AFB01F1002242522BE082
:2028DC00A97938681AFB01F10144206D90F840200A74A87939681AFB00F00844216D91F8B1
:2028FC0041204274206D3968AB79403001F112021AFB03F34188D15205F5CB710078012215
:20291C0000F0030082400A70226D92F84000800814BF0120022008713968A879DFF808B3A8
:20293C0001F1140231681AFB00F301EB4010D050A87939681AFB00F00844BC498161DBF8A9
:20295C0014000078C107DBF8141009784CBF1F200F208A07DBF81410097848BF40F02000B6
:20297C004A07DBF81410097848BF40F040000A073168AA7901EB421348BF40F080001872AC
:20299C00A979306800EB41120B2050723168AA7901EB42100421A64A81721078012806D1AC
:2029BC003168A87901EB40120121D17207E0DBF824003168AA79407801EB4213D872316828
:2029DC00A87901EB40121F2111763068AA7900EB421100204876A8790DF08CFFAA79316879
:2029FC0052018850AA7931685201885820B90721284617F089FAFBE08E48AA79016801EB7F
:202A1C00021019F09BFCA87931688A4B01EB4012196801EB00105060A979306800EB4112F6
:202A3C005168C9F83C10AA7952018158C9F84410042198F800000DF06BFA616D4A78386809
:202A5C00D10648BF02210AD4A9791AFB01F101440A7C02F00302022A14BF04210621B9F894
:202A7C00042095F806C04FF4C8738A18698AAA615143B1FBF3F35B1C6B611AFB0CFCD5F852
:202A9C0000E06044DEF80CC040F6C41101FB02C2D21AA2F5A8628260AA7938681AFB02F2EE
:202ABC0083189A682B689A6000F10C03AA791AFB02F20C309B5C03F0EF038354A8793A68F2
:202ADC001AFB00F002F10C030C321B5C03F07F031354A8793A681AFB00F002F10C030C323A
:202AFC001B5C03F0F00343F002031354AB7938681AFB03F31844427B02F0F00242F00102BD
:202B1C004273AA7938681AFB02F2024490682B6818613068AB7999F802C000F114026869E7
:202B3C0040005B0111FB0C0000F5F660D05095F8960104280DD13068AA7900F114034FEA30
:202B5C00421C143053F80C20AB795B0102F56162C2503068AA7900F114034FEA421C53F84F
:202B7C000C20C5F83421AA7900EB4210C37C03F0F00343F00403C374DBF830003268AB7944
:202B9C00006802EB431CB9F8062042436423B2FBF3F35943A1F59661CCF81C103068A9791C
:202BBC0000EB4110C27E02F0F00242F00402C276A97938682A681AFB01FA00EB0A0151601E
:202BDC0028460E2119F0B6FB1B4907200870204615F022FF19488178880704D5AA790021ED
:202BFC00204619F0A3FB28681549164A41618261BDE8F14FFEF780BDD50F0020D70F0020B8
:202C1C00780E00208E0F0020900F00209C0E0020C70F0020980E002081010210C00C002070
:202C3C009A0F00204DE5011080E40100980C0020CC0F0020A40E0020C80F0020200E002031
:202C5C0031E60000020480802DE9F84F054688B0A978DFF83C66002710294FF0060A3CD8FE
:202C7C00DFE811F0110012031203120312033C00CF0012031203750215010001C70212036A
:202C9C004B028D020A036878002826D119F04AFB044619F043FB054619F03CFB8DF8000041
:202CBC0022461021022017F0BBF92A461021032017F0B6F96A460121042017F0B1F99DF8CC
:202CDC000000012818BF032807D1012019F01EFB02460621062017F0A3F9D5E2687800289B
:202CFC00FBD195F80CB06C8900900023E97801AA01F00101281D0EF089F800284FF00108C8
:202D1C0075D19DF80400FEF7FAF88146BBF1080F307A08BFB846800018F004FC050003D177
:202D3C00042016F0B3FFAFE270789DF8041002280CBF0120002000905B464A462046FEF727
:202D5C0043FB1422002102A818F058FA9DF804001AFB00F0243002AA102180B217F038F985
:202D7C00B0B91022FF2102A817F0C3FD80B99DF804001AFB00FA0AF1250306AA042198B2E8
:202D9C0017F026F902AA09F00101204619F0BAFA317A9DF804008906E0302A46090E80B28B
:202DBC0017F016F998B92846FEF70FF8BA4609E005EB8000018819B18278204617F0ECFB2C
:202DDC000AF1010A317A5FFA8AF08842F0D3B07A30B95FEA897003D53178204617F080F80B
:202DFC009DF80400FEF7C8F8284618F0A3FB7078022805D1B8F1000F02D0204613F08CF8F6
:202E1C0042E2A888FEF7D4FB19F078FA0028F7D1707D012808D1FEF7FAF8706A7775042251
:202E3C00002118F0EBF917E0B07D012803D1FEF794F9B77510E000240AE0706AE5B2415D8D
:202E5C00012904D1E0B2FEF7F3F8716A4F55641CE0B2F1798842F0D3502017F08DFCFEF768
:202E7C0063F811E219F092FA00280CD0F06900281CBF0468002C07D0286900906B7B2A7BD8
:202E9C006989E81CA047FEE168890121F1E168780024002840F01A81A879C10740F11681CD
:202EBC000822002105A818F0A9F9A88819F08EFA040076D06F694FB30622002107F111001D
:202EDC0017F017FD68B306220021384617F011FDD0B9387C00F001084FF0000909F1010942
:202EFC0087F811900020009000230022414607F111000DF08BFF00285FFA89F002D1002895
:202F1C00ECD101E000280CD1002068610622607900F001008DF81A00A11D05A818F064F9A8
:202F3C001FE06F69EFB1387C00F001008DF81A00062207F1110105A818F056F96079012882
:202F5C0005D10622A11D04F10C0018F04DF9062207F11101A01D18F047F9387C40F002002D
:202F7C006071A879410720794CBF40F0020000F0FD002071A9790A0754BF00F0DF0040F062
:202F9C0020002071A9799DF81B00890801F0010108438DF81B00A9790A074CBF082100219B
:202FBC0008E0FEF727FB0028ECD0307804210CF0AFFFE7E708438DF81B000020009000230F
:202FDC009DF81A1004AA05A80DF020FF20B1FDF7FFFF8DF810001AE06869C0B19DF8100066
:202FFC001AFB00FA0AF123036A46102198B216F0EFFF60B91022FF21684617F07AFC30B9E7
:20301C009DF81A0005A900F0010019F0D7F99DF81000F179884255D2E8680021039105A9BA
:20303C000269019002924FF6FF78686900902B69AA689DF81000FDF7DCFE0446AF88B06A13
:20305C0048B906F1180100910223924A4146012019F050F9B062B16A19B3FF2003900222E8
:20307C0000230292019307A800900DF11203328B384606F007F968B99DF812009DF81310E6
:20309C0000EB012290B228B1B06A418992B23846FDF7CBFD328BB06A0023414619F026F9E0
:2030BC00B062200005D09DF81000FDF7C1FFFDF73BFF200007D1707A0028A88804D1FEF762
:2030DC002BFA03E01524A888FEF772FAF06900281CBF4368002B0FD06A78A88801219847DE
:2030FC006878002808D1A879C10705D5F369A88822465C680321A047BEE0687806281BD1B5
:20311C00A88819F063F9B8B1F17C012904D013D3032907D00CD30FE04179A8880022FEF772
:20313C00ADF909E00022002140F2094004F0C8FAA888052119F0D6F8F06900281CBF43683C
:20315C00002B03D06A78A888022198479BE000970023E97801AA01F00101281D0DF056FE77
:20317C000028F3D19DF804001AFB00FA0AF1250305F10C02042198B216F052FF83E0F069F6
:20319C0000281CBF4368002B03D0A888002200219847707810B9A88805216AE0A88819F08B
:2031BC0015F9040070D0A87AC10712D5009700236179002201F00101A01D0DF027FE002820
:2031DC001EBF60790028012803D0E868C0F3402028B1307C022807D1A87A010704D4A888DD
:2031FC00032119F07BF84FE06179A88805F1080227E02F7BAD88284619F0E8F8040042D087
:20321C0019F0C4F800283ED100900023617901AA01F00101A01D0DF0F9FD28BB9DF804003F
:20323C00FDF76DFE07F00C07042F11D0082F0BD00C2F0FD100F0090109290BD061790022C5
:20325C002846FEF71BF91EE010F0090F02D1F5E7C107F3D501220092A37C9DF804100246C1
:20327C002846FEF7B1F80EE070780028E6D10521284619F033F806E0FEF7BCF918B13078A8
:20329C0004210CF045FE0127384609B0BDE8F08F501F0020B4DE01002DE9F04FC049C24C9D
:2032BC00824688460D78DFF8FC92268A67699AF80010ADF12C0DAD1D491E0C2900F293820C
:2032DC00DFE811F04002AE0123018202C300A2002C007D021A006B020D00680259020220E6
:2032FC000AA914F09DFE002840F07D82032001210AAA0DF023F976E2DAF80460C64C707A6D
:20331C0038B1AD1C009438460022BFA3E9B216F056FD0094C149F688002391E0DAF804606F
:20333C00E2783068401E08D0401E5CD0801E58D0001F50D0083845D05FE001277068A7710E
:20335C00007882422DD1CC49CC4A1020002307F053FBC0B208B117F05DFE0B2018F02BFB6E
:20337C00054602222A70FF20687094F85210A9700323EB702A71F0216971A871EB71AA22E2
:20339C002872BF496A72BB23AB72E2781020822307F032FBBB4910200B222B4607F02CFB55
:2033BC00E27840F6B830B84900903B46102007F023FB70680078009098F800506769C2A32D
:2033DC00AD1D0CE000227068A271017800914088C2A301900DE0CAA37068007800900022EA
:2033FC0007E0CDA3F8E700227068A2710078D0A30090E9B2384616F0E2FC3068B0F1004F6E
:20341C0000F0F1817068FBE0304617F0B7FBC1B2082901DB17F0FEFD0020E081CF00A08159
:20343C0007EB01100121001980F81C116089001FADF80800207816F063FB02ABD449009082
:20345C001020324607F0D8FACDE1DAF804004678ED1E0022D4A3E9B23846009616F0AFFC99
:20347C00002E14BF65216121A07808B141F010010222484616F010FE606A10B1606A15F0F4
:20349C00B5FEC6EB061018F096FA606200B900264C460028E66100F0A6810746002E08BF03
:2034BC00002525D0DFF850B304F1140800254FF00109102059462A4602AB07F09DFA0DF105
:2034DC000A0013F053FA01460F2238460EF060FF606A09FA05F1002240F83570404616F0D5
:2034FC00DBFD0F376D1C761EE3D10E2D00F37B811434012606FA05F22046002116F0CCFDDB
:20351C006D1CEDB20F2DF5DB6DE1DAF80450287810F00800287049D105F1020B584613F0E9
:20353C0025FA009095F90C0006210022B3A30190384616F044FC0DF108090026AF69A869D4
:20355C00A97D11F0B5FF305C761C202E09F8010BF5DB9DF82300412840D19DF824004128D7
:20357C003CD19DF825003A2838D19DF82600422834D19DF82700422830D104F15000202621
:20359C0017F8011B761E00F8011BF9D1A97D6669A869617111F08CFF0721A0A319E0C046A4
:2035BC0010270020E8140020E8190020A81C13F0DDF90090042100229EA3384616F0FFFB28
:2035DC006669A869A97D11F073FF05F1020B05219EA300900022304616F0F1FB98F80060E2
:2035FC006469584613F0C2F9761C009000229DA3F1B2204616F0E3FBA869002800F0F38079
:20361C0015F0F4FDEFE0C04650617373636F64653A20256400C046C040E2010079940100B7
:20363C00DAF804000078010930D24009C0F0DB800E2017F089FD0028D8F80420D8F8080011
:20365C0040F0D1809168814214D0B0F1FF3F00F0CA80116951F830702FB901EBC00148686C
:20367C0015F020FDBFE0116901EBC0014968C0B28847B8E0D068F3E7F1560110A821002069
:20369C001DEF011049240100ED7401100D2017F05BFD002840F0A780D8F80410D8F808004A
:2036BC008968814208D0B0F1FF3F0AD0401C15F0DDFCB0F1FF3F02D1002015F0D7FCC8F805
:2036DC0008000BF091FA8EE04164762053657420256420456E61626C656400C041647620FC
:2036FC005365742025642064697361626C656420616674657220636F6E6E20256400C046D2
:20371C0041647620456E6465642025642044697361626C656400C0464164762053746172B6
:20373C0074656420256420456E61626C656400C041647620536574202564204469736162E9
:20375C006C656400DAF80400007840B1801E4AD102200DF1290114F063FC46A305E0002085
:20377C000DF1290114F05CFC45A39DF829006D1E0090384633E02D1F3846002243A3E9B2EA
:20379C0016F01DFB4A49102007F036F92BE0C046ED07021013F06EF925E0DAF80400B0F802
:2037BC0001000FF057F823E02564206465766963657320646973636F766572656400DAF8F5
:2037DC00040007F0E1F90EE0484602216FF0020216F062FC98F80050606931A3ED1CE9B271
:2037FC00002216F0ECFADAF8040008B115F0FEFC0BB0BDE8F08FC0464597011041647665BF
:20381C0072746973696E6720416464723A20257320525353493A20256400C0464164766535
:20383C0072746973696E6720446174613A20257300C046C05363616E526573706F6E736546
:20385C00416464723A20257300C046C05363616E526573706F6E7365446174613A202573D9
:20387C0000C046C0446973636F76657265643A20257300C04368617220333A20256400C038
:20389C004368617220313A20256400C0496E73756666696369656E74204D656D6F7279001A
:2038BC00446973636F766572696E672E2E2E00C0319701002DE9FE4F0446002000900025DA
:2038DC000CB916F0E3F904F1500841F62300D8F8007038807D8002223A737A7369462046B6
:2038FC000CF044FC08B9072051E2009901B1B860B8682061DFF89C04017884F8B810D8F84D
:20391C000400407A14F004FB25302076207EB873FD73D8F80400017D022904BF002016F040
:20393C00B5F9D8F80400007D012802D10020002104E083280CBF06200220202138747974B3
:20395C0004F12406DFF850A4DAF83C0041690868717901EB41010844B0F801207A82D8F840
:20397C000400417848060AD5607DC10604D5E07F40F04000E07702E040F04000607507F17F
:20399C005C0904F1300089F80050B17E890001F0040189F80010B866607DC10656D5D8F8B4
:2039BC00042051788A060CD500F0FE006075D8F80400417811F0030F03D1E07F00F0FE0009
:2039DC00E077607D18F086FCA075421C387CC0F38001002392B200F0030018F077FCA083BA
:2039FC001E20A28B02F59B7393FBF0F01E2101FB1030C0B208B1C0F11E00821802F59B72BA
:203A1C0062831E20A28B02F5967293B293FBF0F001FB1030A283C0B208B1C0F11E00801895
:203A3C00A08380B2E27D618B521E50434018608307F13005608BB43080003866062089F8CB
:203A5C000300E17F41F00801E17720E040F001006075D8F804104A78510744BF40F002001C
:203A7C006075607D18F036FCA0750023401C82B2387CC0F3800100F0030018F027FCA0834D
:203A9C00A08B00F59670A0833D6689F80350A17D207D61F3050007F1880120750870032283
:203ABC00607D48708A70B07E800000F0040040F003008870F27ED20002F008021043887005
:203ADC000020C870C7F89000B08BC0F30B00B083D8F80410CA7D40EA0230B0830022617D3D
:203AFC0001F0FE0120460BF081FD019700271EE01C2010FB07F004EB000B01991C220BF112
:203B1C00640017F071FB0BF16C00052101717F1CA28B92000260FFB2DAF83C104A691168FB
:203B3C00737903EB43031944B1F801204281E07D401E8742DCDB019F20460FF031FFE07D92
:203B5C00012809D013D3032808D03EBF04F164007860C8F818500AE07D6008E004F1640000
:203B7C00786004F18001C8F81810C8F8345041F6240038860021798607F13C05B868618B31
:203B9C0000EB8100B8630221822028706970002194F82100E97000F03F00A870D8F804000A
:203BBC00807D012818BF022803D100F07F00401E04E083280CBF06200220202128716971CB
:203BDC004FF0000BDAF83C0041690868727902EB42021044B0F80110E980C7F86CB0D8F81A
:203BFC000400417811F0030F20D018F06BFBF866DAF818000078C107DAF8181009784CBF6D
:203C1C001F200F208A07DAF81810097848BF40F020004A07DAF81810097848BF40F0400074
:203C3C000A0748BF40F0800089F8140089F815B0D8F80410594A897C01F0030189F815109E
:203C5C00B07E800000F00400014389F81510F07EC00000F00800014341F0100189F815106A
:203C7C00107838B199F8140000F0FE0041F0400189F8140089F81510E07F18F02BFB84F86E
:203C9C002000204618F01AFBE07FC10636D5D8F8040094F820204178521C88074EBFD21EE1
:203CBC00F07F12182879C0F380010023D2B200F0030018F00BFB30801E22308800F596702F
:203CDC00C0F11E0190FBF2F21E2000FB02113171D8F804104878810731884CBF00204FF448
:203CFC009B70401830807080B86B318832795218A63200EB82007867022002E0C7F874B0A9
:203D1C00002089F8170004F13000C7F8800007F18400D8F804104A78510707D504F13802E6
:203D3C00026099F8150040F0200007E01C490A685168016099F8150000F0DF0089F815002C
:203D5C00A17F94F8200060F30501A17740F60B002882A5F812B0DAF83800008880007865D1
:203D7C00DAF83800008800B1072028770220687794F84510E983D8F804004178880744BFB1
:203D9C000121E983009808B10BF06CFA0020BDE8FE8F00BF1C3B002080E40100880E002024
:203DBC006C0F00202DE9FC47D44C0F460546F80B80F006826078DFF85883B90F80F0AA814B
:203DDC00B90880F09D81F90A80F00281390B80F0CC80380907D2F80FC0F0288227F0804729
:203DFC0011F0F2F822E217F0DEFD814616F084FC002800F0B480082017F0CAFC002840F0F0
:203E1C00AE80802017F0C4FC002840F0A88068460EF03CFC012803D10098002800F09F80C1
:203E3C0094F84102002840F09A8000250126E8B217F0D0F948B1837A3BB1867290F9090003
:203E5C0006FA00F0C0B215F0D5FA6D1C032DEED3032084F8200004F5CC7017F09EFD484672
:203E7C0018F028FAD34800252A460168056050F8081CD14940F8085C04F15C0016F05CFBAE
:203E9C0040460068006B8047A168401A010BA06AC1F1FF3282422CBF08444FF0FF30A0621F
:203EBC0094F82C0020B12069A16AB1EBC02F25D916F032FC294600B13146081C1BD0BF485F
:203EDC0040F6090101804580417B06F00F0221F00F010A434273017B05F00F0321F00F01B6
:203EFC0043EA010202732946416017F003FB418811F4406FFBD084F82C60A56213F0FAFC9C
:203F1C00CE4829460560022016F0A4F9022015F079FC11200CF0B2FA207818B960684830B8
:203F3C0017F083FDC648007810B90E200CF0A6FA94F82D0020B184F82D50052015F062FCBA
:203F5C00C048606284F82050B4F9B000B4F9B210884214BF022007200FF064FD02E048460D
:203F7C0018F0A8F927F008073AE720B1042015F049FC00206070656815F008F838B12846DD
:203F9C00ED696FF4807100224FF00073A847E06858B140460068006B8047E2686168801A7A
:203FBC00C860000BC8600026E660A74904F15C00002216F0C1FA0221D4F89C0084F82010C3
:203FDC0018B104F1DC0017F042FD27F4006707E717F0E9FC064616F08FFBD4F89410002815
:203FFC00894600F08480002900F081809749042504F15C00002284F8205016F09DFA30464D
:20401C0018F058F904F5CC7017F0C7FC40460068006B8047E0604FF0010884F80180284619
:20403C0015F008FCD9F810006060D9F81000416AC90803D3036A294600229847404611F023
:20405C003BFF606880F8158060680CF06DFD6568D5F808A040F60A02D01F564600F1010CFA
:20407C0000E01E46736833B119888A4203D0884218BF8C45F5D100217160727B08F00F03C0
:20409C0022F00F0213437373D9F80C201288904224D06046904221D02B8E03B3696305F1AE
:2040BC003002518095F83C0001F00F0320F00F00034385F83C3095F83D0008F00F0320F0E3
:2040DC000F00034385F83D307260707B01F00F0520F00F0045EA0001717300E0E1605046D9
:2040FC0017F008FA5146404616F0B4F802E0304618F0E0F827F4806798E0C046E00F002005
:20411C0007F05CFFD4F89C0008B927F002078DE08C0100104E4A116841F08001116020B1D9
:20413C00042015F06FFB0020607017F03CFC8246D8F85400016804208847D0B1287DC0B1C2
:20415C00A068B0B18146D8F800002E69006B8047A0EB09002861000B2861B04202D280196A
:20417C004008286140F6C41181422CBFB0F5967F2961504618F09EF814F008FF80B1EE698E
:20419C0028466FF4807100224FF00073B047D4F89400002808BF47F0020701D010F014FF03
:2041BC002846AD6900214FF080630A46A84727F000573BE0141004404D640100143A0020CC
:2041DC0017F0F1FBD4F8AC6066B306F1280106C90A234FF0E0450B40154008BF002B21D1DB
:2041FC0006F1280191E8000306F1280595E8060006F1280322EA090221EA080183E80600A2
:20421C0018F058F8B16879B1B9F1000F08BFB8F1000F09D03069B6F93010B5684B46424618
:20423C00A84701E018F046F827F4804727B104F1DC00394617F00BFCBDE8FC8700000460A8
:20425C000AE30100E9ED000031E20000F5A60100CC2108402DE9F84FDFF85854A978002475
:20427C00FF2904BF002015F011FDA87816F062FF054605F1680605F5C9773168086805F195
:20429C00900808B1EC8311E0B07B002804BFB07E00280BD198F80010002904BF38780028A5
:2042BC0004D1287F012804BF688CE8832989E88B4118491C6981284617F0F8FF01281EBFDC
:2042DC00DFF8F4030178012903D12989EC83491C69814FF6FF79B07E01280DD1B28B6989EC
:2042FC00288917F0DFFF38B1298968894A1C93B298422FD0B08B23E098F8000001280FD125
:20431C00B8F802206989288917F0CCFF40B1298968894A1C93B298421CD0B8F802000FE094
:20433C003878012816D17A886989288917F0BAFF80B1298968894A1C93B298420AD0788809
:20435C0092B2904206D04844688180B217F0A6FF4844E883387801280FD128897988401C44
:20437C0080B2884209DB7C793C71022038702346A979224600200BF0FFFC05F59A71087946
:20439C0020B128890021401CE9836881B07E012813D12989B08B4B1C9BB298420DD1688130
:2043BC0017F07CFF804605F12E008188308C01FB080828460FF07AFD03E005F12E01B1F80F
:2043DC000480EA8BDFF8F492501C00FB08F040F6C41808FB00F100912B68D3F80CE0714476
:2043FC00D960B74B196809788909032940F0168199F80F30B349DB0740F10081B5F812C000
:20441C0000230CFB00FC4FF4C87EBCFBFEFC0CF1010C0B80A861C5F814C085F820204FF0F5
:20443C001C0BDFF8A4A2AB79DAF8000000F108021BFB03F3D1582A68116100F10801AB79D4
:20445C00D26868691BFB03F3121ACA50DAF80000AB7900F108021BFB03F3D1582A6891603A
:20447C0000F10C02A9791BFB01F10C30535C03F0F00343F002034354DAF80010AB798A1CAB
:20449C001BFB03F30021D152387908B915F0FEFBDAF80000AA7900F1100138791BFB02F28E
:2044BC0040088854A879DAF800101BFB00F00844002141743879042814D1A879DAF80010CC
:2044DC001BFB00F001F110021031135C3A7A43EA82030B54AA79DAF800001BFB02F20244FC
:2044FC0020205074DAF80010A87901F112021BFB00F0002111527549A8790A6802F11403AE
:20451C004FEA401C143253F80C00AB79D5F814C05B0100EB4C00D050B07E02280DD10A682D
:20453C00AE7902F11403760114329859AB7995F82E605B0118FB0600D05005F12E0299F8F5
:20455C000F00C30773D5DAF80000AE7900F108041BFB06F60830A359AC791BFB04F4A3F517
:20457C00A8630351DAF80000AE7900F108041BFB06F6A3592C68A36000981B1A2361086864
:20459C00AE7900F1140476011430A359AC79640103F5F6630351387904280BD10868AE7999
:2045BC0000F1140476011430A359AC79640103F5616303510868AC7900F114036401185912
:2045DC00C5F83401424B186B0C68AE799288006804EB461742436424B2FBF4F408FB04F0BB
:2045FC00A0F59660F8613B480278012A48D10868A97900EB41120120D07248E00B885B1C15
:20461C001FFA83FCBCF1010F11BFB5F812C005F59A7EBEF806C00CF2DC5CF2E6698A4143C7
:20463C004FF4C873B1FBF3FC0CF1010CF2E6042C0BD10868AE7900F1140476011430A35900
:20465C00AC79640103F56163035138790B68AE7904280CBF4FF4AA504FF4E66003F1140490
:20467C007601A359181A938808FB03F3A3F516739842A7D30821284615F046FC012016E0FB
:20469C00586A0968AA79407801EB4213D872A879DAF800102A681BFB00FB01EB0B00506018
:2046BC0007210D480170284610F0BEF90020BDE8F28F00BF780E0020D10F0020980C00205C
:2046DC003C0F00200E3B0020980E00209C0E002080E40100CC0F0020C80F00202DE9FE4FA0
:2046FC000546DFF82404DFF824640278002A4CD0052A73D0062A00F08080072A18BF082A69
:20471C0000F0F7800A2A00F0D381112A02D0132A70D0F1E1DFF8F8331878002117F026FE64
:20473C0004001EBF606D407810F00C0F2DD0216DC0064CBF886CC86E0622016801F10805C6
:20475C00A91C684616F050FD287800F00F0105291BD145096946C0F3801017F09BFD0028B6
:20477C0013D03168684617F091FD0746316804F1380017F08BFD87420DD0606D4178C806C2
:20479C0004D440F2014017F07DFDBBE1607B40F002006073B6E133681E2010FB07F698198C
:2047BC0006226946C01D16F01FFD606D4178C806F0D5A17B0129EDD1DFF858038178480671
:2047DC0005D5E90703D4206D41F20A4102E0206D41F2044141804183418693E117F015F955
:2047FC000028FAD110F0E8F8012802D0012017F045FD87E10FF0C7FF84E1DFF81C532868FD
:20481C0017F038FD0400F7D020790328F4D1207A00F00F01072937D1C04800684169497A3D
:20483C004A1E11425ED0617A04F10A035A5C02F03F02252A56DBA17A8A09012A52D111F030
:20485C003F0F4FD0007C16F075FCE17ACA074CBF04F1110204F10B028B0748BF921D0B0741
:20487C0048BF921CC90648BFD21C1621127852094A43AB498B180A31EB608A5A428699890F
:20489C008186DA89C2862DE000F00F00082829D1A17A880926D129B3A0480168087C16F0BA
:2048BC0049FCE17A074688071CD5062201F001015143601800F10C01684616F095FC207A6B
:2048DC00C009FF280ED0694617F0E4FC50B1306800F10D01684617F0C9FC18B905213846D1
:2048FC0015F012FB2079032802D0002015F0CEF9FEE0DFF830B29BF802000024FF281BD0A6
:20491C0016F018FC804608F16C09D9F8040017F0B1FC2A460179032901D011000CD08368E5
:20493C00197801F003008D06009003D50124009818B9BAE01000FAD0E4E05D7803F1020A40
:20495C0034B31AF8010B784B01902C2098F806C01F6810FB0CFC67444FF0010E87F805E049
:20497C00002A1F6898F806E007F11A0C019F10FB0EFE07F01F070CF80E7098F806701B68F7
:20499C0010FB07F01844019BC3F38113C3761AD10098032808F217171AD0ADB199F80000CF
:2049BC0068B108F1F4000278012A0DD1564B1A78072A04D0082A04BFC078012804D13D2191
:2049DC007970012038709DE0584A1378012BFAD098F8940070B32D1FEDB253462A464046A8
:2049FC000FF066F900281EBF51490878002807D13D21797001203870306817F033FC81E0DF
:204A1C004C4801688847064698F80610DBF804204FF4D07041435018002280F8412108F55D
:204A3C009E700168807949080FF028FC42490A68304690470098032819D0404841690978CD
:204A5C008A0708D541690878C1074CBFE81C28461AF8000000E0812089F808002A46009839
:204A7C00C3B29BF80200514606F086FE1DE09AF800001CB11B2804BF022D01251C2803D22F
:204A9C002F490B5C9D4205D0B8700721404617F051FC0AE01C48017808295146404602D155
:204ABC0016F07DFF01E000F079FAD9F8040020E0244C207830B3244D286817F0DBFB08B3BB
:204ADC00017903291ED1017A8A0611D5807AE178C0F38112914202BF217900F01F0081429B
:204AFC0006D1A078002801BF607800280121A170286817F0B3FB05E0002015F0C7F88620DC
:204B1C0017F030FCBDE8F78FC80F0020680F0020D50F0020C00C0020BC0A0020540F002034
:204B3C00E0070020780E0020943A0020D20F0020233B0020FC2000200021002080E401005D
:204B5C0018E501003C3A0020AC0C00202DE9F04F0F46380589B018D5DFF8EC532888FF28D3
:204B7C000ED0C0B216F0E6FA040009D0A079162117F070FB204616F0D3FA204617F066FB3D
:204B9C00FF20288087F40060DAE1F80508D5022016F037FF08B10EF0CCFB87F48070CFE1CB
:204BBC00B80604D50CF044FA87F02000C8E1F8070CD516F087FC30B100218160DFF88C0316
:204BDC00006800B1804787F00100B9E1380704D506F01CFD87F00800B2E1F8060FD500218B
:204BFC00002200230691059204910393029101920091022017F026FB87F01000A0E1B80733
:204C1C000FD500210023069105910491039302910191009101223C2017F014FB87F0020034
:204C3C008EE179074FF01E08C94EDFF828A340F1CD80C9480022002108920791007817F0C8
:204C5C0095FB0446C5488178FF2904BF002015F01DF8A07A16F06EFA05469AF8000095F841
:204C7C002E91002805F5947B69D0606D807A022818BF032807D130680D3017F0DFFA10B9A6
:204C9C003068C11D07915946484617F003FBA0B3606D807C3368002818BF012804D11946A5
:204CBC00584617F0F3FA04E05A464946184617F091FBFF2843D018FB00F8306840440622B9
:204CDC005946C01D16F090FA306810F80810404400F1010BC01D41F0020908900622616DCC
:204CFC00C87A00F0010085F82E01606D00F10C0105F5947016F078FA21E05946484617F043
:204D1C0099FAE0B130685A46494617F063FBFF2815D018FB00F8306840440D3017F08EFA28
:204D3C0058B9306840440D3017F088FA002801BF30684044417F012901D149F0020905F16A
:204D5C002C004B46017806914289120905920122698C0491C0880899029140080390CDF824
:204D7C0000B0079801900020A97917F06BFAD5F89C017B498842A8790CBF0021012117F05B
:204D9C0055FA7848AB7902682C214B43134401221A73AB7904684B4323445A73AB79046896
:204DBC004B4323449A73AB7904684B432344DA73AB79006811FB03F101440020087407206F
:204DDC00A9790DF02AFE87F00400B9E038060FD50021002306910591049103930291019179
:204DFC00009101223B2017F02DFA87F08000A7E0F8045DD55C4930680C680D3017F01EFAA1
:204E1C00002844D13068C11D0D3017F00BFA3EE0606D4178480704F13E0526D5287802288A
:204E3C001EBF03286878012830D16978306804F1380217F0CFFA8146B9F1FF0F15D03068D0
:204E5C0018FB09F948440D3017F0F8F968B930684844C11D0D3017F0E5F930684844C11D19
:204E7C00062204F1380016F0BFF92878022818BF03280BD130680D3017F0E0F930B9306825
:204E9C00C11D062204F1300016F0AEF92468002CBED13648DAF8042000784FF4805113F0D4
:204EBC0003F910B18E2017F0B9F987F4805047E0B80505D516F00CFC2D4901200860FEE7B7
:204EDC00780504D515F033FD87F4806038E0780405D5812017F0A2F987F4804030E0B90417
:204EFC002DD5244C206810B1002014F0CFFE4FF0FF3020600020204C0FF084F9216851F822
:204F1C00202F684690471D494A6B086BC96A24681B4B019200900293ADF810106B46194A5D
:204F3C0019491A4803921A4A07922568194AA8471949086004F076FF87F4005000E0002022
:204F5C0009B0BDE8F08F00BF8E270020480F0020680F0020880E0020D70F0020780E002054
:204F7C004DE50110943A00204C0F0020C70F00207C052043380F0020200F00209C220020FB
:204F9C00C1B40100D1B40100A0270020280800201EFB0080EC0A00201C0F00202DE9F0437F
:204FBC00044685B0084611F801CBDFF8A483DFF8A4332C22BCF1030F4FF0000904F5A4771E
:204FDC0004F1660504F1F40600F0C380BCF1070F00F08081BCF10F0F0CD0BCF1110F00F01B
:204FFC002481BCF11A0F00F03681BCF11B0F00F061818EE1707A820703D40F2184F819113B
:20501C0059E008784A7800EB02233B808878CA7800EB02237B8008794A7900EB0223BB8052
:20503C008879CA7900EB0223FB80087A38724A7A887A02EB00237B81C87A0A7B00EB0223B0
:20505C00BB81487B8A7B00EB0223FB81C87B0A7C00EB02233B82487C8A7C00EB02237B8237
:20507C00C87C0A7D00EB0223BB82487D897D00EB0122B948FA8201788A0658BF4FF01A0924
:20509C0013D504F5AA70049079890391387A029021890191F8880090BB887A8839882046D3
:2050BC0017F0B8F8C8B14FF01E09707A410706D40F2084F81901204617F0A8F8F0E04A4600
:2050DC000F21204617F09EF8F8880090BB887A88A179484611F078FEE9E004F186007988C8
:2050FC008180BA88C2800222F98801810270A0F80290A18EC91DE983628E8188B1EB520FD5
:20511C0002BFC188A28E914202BF0089E18EB0EB111F1CD0287C012804BF687C0F2809D072
:20513C00687D00281CBF687C1A2803D00F21A976FE2176E0FC21204617F0FCF8F888009020
:20515C00BB887A883988A07917F058F8AFE0102167E0707AC20709D431781A200129707039
:20517C0002D1FF220D213BE00D215AE085F8009085F8069001233371082204F1B00017F0B0
:20519C0039F80146022204F1B80017F033F804F1A80801460822404617F02CF8074608213B
:2051BC00404617F023F804F19C0804223946404617F020F80421404617F018F804F1A000F1
:2051DC0017F010F804F1980017F008F86348018841F0800101803078012805D1FF220421BC
:2051FC00204616F0F7FF62E06E7C0F2E18BF142E04D00E2E1CBF0C2E1A2E11D12F7C20464F
:20521C0016F0E4FF0421204617F094F8012F05D11A2EAE7614BFFD21FB2102E0314600E0B3
:20523C000421204617F086F841E00E783E761A2E497879766DD11868A679411C564301F823
:20525C0006901968A37912FB03F20A4482F80490A179787E56E0A77918680E785743074450
:20527C0006F01F0117F8210FB60938B17878F040C00703D594F89601042805D120221A21B4
:20529C00204616F0BFFF12E0F970A179186812FB01F28118204681F82360002116F0B7FBFF
:2052BC0028B998F800004FF480410AF031FE4FF0010932E0A179186851430144C88808B955
:2052DC0081F80190A179186812FB01F2811881F80490ECE709780F2917D01A2919D1A179AE
:2052FC001868514301441A2081F80190A1791B6812FB01F2991881F80490F17A01F0FB0142
:20531C00F172A1790EF02CF9D1E7717A01F0FD0171720146204616F055FF687C1A2812D14C
:20533C00A87C17281CBF1028FC280CD12E7C204616F04CFF012E03BF1A20A876FB211A21D9
:20535C00204616F0F7FF484605B0BDE8F08300BFC70F0020943A0020200E00209C0F0020B8
:20537C002DE9F84F0422FF21684615F047FFDFF88C63B0780024FF2800F0BE8115F0DAFE30
:20539C000546B07816F076F8064605F217100178012908BF417800F0008105F1740005F5A8
:2053BC00927A817B022904BF05F174018C7395F89201022805F1740008BF85F89241017F26
:2053DC00022904BF05F174010C77BAF80E1019B19AF80C000AF09CFD6889C94F288105F55E
:2053FC008D7BBA7AF879397B80184118F87A0818797B00EB0109BBF80400BBF80010401CEE
:20541C00ABF804004944BBF80200ABF800101018ABF80200DAF80000F0B1BA4995F806E01E
:20543C000B681C2103F10E0C11FB0EFE0E331CF80E1030F811C0CC4420F811C01C2195F84B
:20545C0006C011FB0CFC13F80C3000EB4300B0F84A105218A0F84A2014F0A4F9F879002839
:20547C0004BFF87A002805D1387B002804BF787B002840D0F481A046F07EC00910D0307FF3
:20549C0000F00701022907DA00F0F802401C00F007001043307703E0A879002112F026FB6D
:2054BC002989E8892C744118287FA981012804BF688CE883A979012207200DF0AEFA787897
:2054DC0005F1740658B101212977B078002804BFB07B002803D1307F08B9688CE8839AF8DA
:2054FC001400002862D0022804BFF87A002858D18AF814405AE0A979002207200DF08DFA73
:20551C00EC83317F11F0070F02D1F07EC00903D0A879002112F0EAFAB87A38B1287F012849
:20553C004FF0010827D1688CE88324E0BBF80600401CABF806004FF00208287CD8B17249BD
:20555C000868AB7995F82E6000F1140268694FEA400C40F6C4105B0110FB06CC0CF5F66089
:20557C00D0500968A87901EB4010C17C01F0F00141F00401C174A8892989814206D0884251
:20559C009DD2081A41F2AB02904298DA287C08B1052901D0082100E03E21284614F0B4FC54
:2055BC00AAE0787A10B102218AF81410F87BC1070DD538692968C86000F59070C86052489B
:2055DC000168A87901F114024001145014E04E48AB79026802F114015B01C858CAF810000A
:2055FC004848AB7901681C2001F108024343D0582968C860EC832C77444A5069007881077A
:20561C0002D5B87B802800D181203070404991F8200018B12946012016F0EFF928460BF0C8
:20563C003DFB02281BD1F079022805DB6A463949284610F0B1FB0446284616F0BFFD01289E
:20565C005AD020000DD022466946284611F05AF838B928460BF022FB012802D14CE0012867
:20567C004AD00121284616F0A5FDFEF7F3FD012842D028460FF005FCFCF73EF8264F3868F0
:20569C00002839D0B888AA7990421CBF4FF6FD71884231D12148007B15F054FF04002BD0F3
:2056BC0084F80080A8791E4960800A68A879115C217105F5C9721079607196F90010A17198
:2056DC00A4F80890BBF80200608115F0FBFE050005D1FF204FF0FF312073216109E02878DF
:2056FC00207316F04BFE0146A86816F05FFD80082061204639688847BDE8F18F780E002049
:20571C00980C0020980E00209C0E002080E401002C380020F0280020800E0020B027002053
:20573C00AC3A00202DE9F84FDFF87C730446386808B90720B5E1C07A012804D0042013F05E
:20575C0025FE012801D10C20ABE1DFF860030078092818BF0A2804D00B281CBF0C280D2820
:20577C0001D121209DE1002C05D0207810B101280BD102E0E01C00F0BC80A078002818BFFC
:20579C00012804D0022818BF032840F0B2806078002818BF012803D0022818BF032874D11E
:2057BC00607A10F0050F70D00025A84640F67B4243F6FD7340F67746607A0121A9400842CE
:2057DC0036D004EB08104189A1F1040E9E453EBFB0F80CC0ACF1040E9E4510D2614522BFE3
:2057FC00018BB0F816C061450BD3C189A1F1060E96453EBFB0F810C0ACF1060E964578D2E9
:20581C008C4576D3B0F812C0BCF5FA7F71DA808AA0F10A0EB6453FBF0CF1010C490001FB68
:20583C000CF1B1EBC00F64D208F101005FFA80F86D1CE8B20228BFDD39684C61607A9C49ED
:20585C0006280CBF01200020087003F0F5F9050008BF09200BD03A68A9791174E01C07D0AD
:20587C00A278E11C402007F0E9FE08B10B2018E105F16101284616F065FD05F12C06B07B59
:20589C00012803DC28460BF085FF32E039686078DFF82082DFF820B2DFF82092DFF820A228
:2058BC0088726078002818BF012807D1C0073B6854BF594641460622181D40E0DAF8000008
:2058DC000D3016F0BBFC30B999F80010002904BF2078002813D16078C10754BF59464146BF
:2058FC0016F0A8FC28B16078C10754BF5946414601E01220D5E038680622001D0EE0DAF8C3
:20591C0000003B68C11D0622181D15F06DFC6D4801680868DAF800300622D91D15F064FC0C
:20593C006078DAF8001000F0010008706078C107DAF8000054BF594641460622401C15F0F4
:20595C0053FC207870BBA07885F82E0105F594780622E11C404615F047FCA178DAF8000071
:20597C00E21C01F0010116F035FD0146FF291CBF99F80000002815D0A07840F0020085F833
:20599C002E011E22DAF8003051431944487F48B901F10D0016F052FC20B906224A49404654
:2059BC0015F022FC16F0FEFBA86215F0B1F9686204F11001DFF8F88098F80000000104F14B
:2059DC0014030A5AF280195A71812044428A328102223868417C3170B2700020B08015F0DD
:2059FC0050FF0C2290FBF2F20C2101FB1200401DF07304200BF03AF83968344A344B08604D
:205A1C0042608361334A42610120C872A87914F0FFFF99F80000002801BF386841690A7801
:205A3C00012A0ED1807A02280BD1DAF8001001F10D0016F003FC20B92748417941F0040122
:205A5C0041711A4C2078C8B999F8001049B12348006816F0A3FB38680068816941F480211F
:205A7C0081613868007C0DF06DFA06202070012200210CF0D2FFFBF73FFE11E03A68117E90
:205A9C00D068526998F8004002F10C03240140F6C4121D5B02FB050000F516600BF07CFC9C
:205ABC000020BDE8F28F00BF540F0020C80F0020D90F0020480E0020400E0020880E0020A9
:205ADC00680F0020B43A0020006E0210040C002002008080794F0100BC0A00206C0F002009
:205AFC002DE9F84FDFF894030278112A03D0122A00F0BE81C0E1DFF888331878002116F0E2
:205B1C0035FC05000AD1002014F0C0F8002014F0BDF8BDE8F24FFF2016F024BC05F14C0A6C
:205B3C009AF8000008B90121E972401CDAF808108AF800004A78D106DCD4E97DDAF80470BC
:205B5C00C2B28A424FF00008D4D305F1280407F1900907F17306C34640F08C80A87F707586
:205B7C00E97FB175DAF808205278930710D5EA7FD30604D5C01E707501F0EF01B175C7F894
:205B9C0074B086F800800022B17D01F0FE016AE1910608D4E08B00B1E07E3076E08B00B18D
:205BBC00206AC9F80000DAF808004178CA070DD5E08B00281CBF206A002807D0C9F8000080
:205BDC00A17EE08B814238BF08463076E87FC1060CD5B86B217800EB8100B863B86BA98CC7
:205BFC00A63100EB81007867022002E0C7F874B000203070DAF80800417811F0030F22D127
:205C1C00007815F000FF5FEA00081CD098F8B000032809D1E87F810615D440F02000E877E4
:205C3C00B07D40F020000DE068B9E87F81060AD500F0DF00E877707DA0F112017175B07D1E
:205C5C0000F0DF00B075E97F002201F0FC01284609F0CCFCB8F1000F36D0E87F810633D5D9
:205C7C0098F8B00002282FD141462846BDE8F44F15F0D1BEE87F81060AD500F0DF00E87732
:205C9C00707DA0F112017175B07D00F0DF00B075DAF808004178C80717D5B07D717D00F0F7
:205CBC00F700891E01F03F0182075CBF891D40F00200420644BF491E00F0BF00B075717511
:205CDC00C9F800B086F81880D6E09AF80020E87D121AD2B28907009240F18280012A07F12C
:205CFC0040083FD1B86BA98C00EB8100B863A87F00F03F00A8777075E97FB175DAF808206F
:205D1C0053785A0703D5801F707501F0FD01B1750023707DE17E00F03F00421898F8000042
:205D3C00521CC0F3800192B200F0030016F0CEFA00F59B70A8841E21A88C90FBF1F18AB258
:205D5C00B17D01F0FE01284609F050FC86F800B0E08B00B1E07E3076E08B00B1206AC9F8A1
:205D7C00000089E0B86BA98C022A00EB8100B86326D1E87FC10706D5707D811F7175B07DF2
:205D9C0000F0FE00B0750023707DE17E00F03F00421898F80000521CC0F3800192B200F076
:205DBC00030016F093FA00F59B70A8840022B17D01F0FE01284609F019FC607FA8F81A00B0
:205DDC00617F0098491C081AC0B201281CDDB96BAA8CA63201EB820179670221317014E0DB
:205DFC00B86BA98C00EB8100B863617F0098081AE97FCA06C0B207D5B96BAA8CA63201EB6A
:205E1C008201796702213170B0B395F81F80A97FD9F80020E37E1A44C9F8002028F00108D6
:205E3C00DAF808205278530748BF28F00208920748BF28F00808012807D1207F3076C7F832
:205E5C0074B028F0100886F800B001F0C004404616F040FA00F03F002043707586F816809E
:205E7C00002208F0FC012846BDE8F84F09F0BEBBBDE8F14F11F09DB9BDE8F18FC80F0020CB
:205E9C00D50F00202DE9F041FF2806462AD115F055FC10F01F0F22D0042013F023F808B1BC
:205EBC00042016E0012013F01DF808B1012010E0022013F017F808B102200AE0102013F07D
:205EDC0011F808B1102004E0082013F00BF820B10820BDE8F04113F073BA13F0D7FE0020AB
:205EFC00BDE8F08113F06CFA8046012ED8F8044046F2A81740F6C4100BD0022E5DD0042E93
:205F1C0000F0AB80082E00F0F380102E00F04281E5E7DFF8000301688F88102012F0E2FF87
:205F3C00E8B1102013F04CFA05466E6846B9022012F0D8FF20B1022013F042FA05466E68C5
:205F5C00012012F0CFFF40B1B068A0EB8701A06814F062FB08B94046C2E72846C0E7022088
:205F7C0012F0C0FF90B1022013F02AFA06460120756812F0B7FF38B1A868A0EB8701A068A4
:205F9C0014F04AFB0028E6D03046A9E7042012F0A9FF08B10420E7E7082012F0A3FF30B192
:205FBC00082013F00DFA4168002999D1D3E7012012F098FF002893D0CDE797490A68974972
:205FDC00D3690A7802EB82029E18F7884743042012F088FF07F5166788B1042013F0F0F948
:205FFC0006460220756812F07DFF0028CCD0A868C11BA06814F010FB0028C5D1ABE708207D
:20601C0012F070FFD8B1082013F0DAF905466E6846B9012012F066FF20B1012013F0D0F906
:20603C0005466E68022012F05DFF002895D0B068C11BA06814F0F0FA00288ED18BE7012012
:20605C0012F050FF08B10120C8E7102012F04AFF08B11020A5E70220AAE771490A687149C1
:20607C0053690A7803EB0216B7894743082012F039FF07F5166780B1082013F0A1F90546DA
:20609C006E6846B9012012F02DFF20B1012013F097F905466E680420C5E7012012F022FF06
:2060BC0028B1012013F08CF9064604209AE7102012F018FF80B1102013F082F905466E6808
:2060DC0046B9022012F00EFF20B1022013F078F905466E680420A6E7022012F003FF28B13C
:2060FC00022013F06DF9064604207BE704205FE715F085FC08B1D0F89070042012F0F2FEA0
:20611C0058B1042013F05CF906460820756812F0E9FE002818BF002C68E7012012F0E2FE27
:20613C0060B1012013F04CF90646082012F0DAFE002818BF002C3FF427AF0CE7102012F022
:20615C00D1FEA8B1102013F03BF905466E6846B9022012F0C7FE20B1022013F031F9054620
:20617C006E68082012F0BEFE002818BF002C5DE7022012F0B7FE58B1022013F021F906466B
:20619C000820756812F0AEFE002818BF002C2DE708200DE7032015F034FC08B1D0F89870F4
:2061BC00022012F09FFE50B1022013F009F90646102012F097FE002818BF002CBBE70420D6
:2061DC0012F090FE28B1042013F0FAF80646102008E7082012F086FE80B1082013F0F0F8C4
:2061FC0005466E6846B9012012F07CFE20B1012013F0E6F805466E68102014E7012012F084
:20621C0071FE28B1012013F0DBF806461020E9E61020CDE6A83A0020500F0020D80F00206D
:20623C00540F0020D90F00202DE9F84F05004ED0DFF8E48298F80000092818BF0A2804D05C
:20625C000B281CBF0C280D2801D1212062E1A878002116F08BF8040008BF4220F6D0AF4F9A
:20627C00A978DFF8BCA2397098F8000010B9A8788AF8000004F14806F068417801F01201B0
:20629C00022902BF706900280C2012D0607AF0B1A07B012804D1B5F8030008B1812816DA51
:2062BC006878402813DA204615F074FFB06808B907202FE1B561287801281FD1A07B00288D
:2062DC001CBF0128042819D19648007808B9122020E195494A78824208BF0920F8D0F068CA
:2062FC00417848070AD504F1220180204A7F04F1380107F0A3F908B10B200BE1687808B9E8
:20631C00112007E12878DFF82492DFF824B2012840F0AF8000212173F166217A012903D141
:20633C00B16968794871F4E0012000212072E172617325460AF09AFB6060DBF8000080476A
:20635C007C4A0146106802E06A68426000680028FAD10846D9F800108847696876484861B5
:20637C000021387815F041FB3978012211200CF054FBF0684178C80605D5284601F044FC47
:20639C00010024D0C6E0688C10F072FD85F82100F068007815F037FB04001CBF94F8B00023
:2063BC00002807D0E87F40F02000E877687D40F0180068752846FDF77DFA0100E2D134B130
:2063DC0094F8B000012804BF284615F022FBF0684178C8071CD505F14204A18800291CBFAF
:2063FC003068002814D022788A4211D20F2015F0CDFE68B1F06801788DF800100F20A288BD
:20641C00ADF8012021788DF80310694615F0BAFE98F80000A0B94949087800281EBFF068A5
:20643C00417811F0030F03D04548006815F0B6FE112088F8000001212972FBF75DF968E0F5
:20645C00284612F089FF00281CBFB168002960D0AA7B012A04D02A69808802EB800202E0A3
:20647C00486E2A69821895F8B81010460AF094FF4FE0207A00284CD0DBF8001088470546DB
:20649C003878012115F0B1FA00202E4920720A683E7811460B68187A002802BF586D037888
:2064BC00B3421FD0C9689142F4D138789AF80010884224D115F006F8616888421FD113F079
:2064DC0071F940F2014015F0DDFE1F491F4A204808600121107809F01BFDD9F80010284638
:2064FC00884716E01B4E30780128DEDD084612F089FC15F01FF83078411E3170D5E720460B
:20651C0015F03CFED9F8001028468847204612F083FA0020BDE8F28FC80F0020D60F0020DB
:20653C00D50F0020D40F0020780E002000210020FC2000204C0F0020ADA30000880E002094
:20655C006C0F0020A83A0020480F0020C70F002059710000203B00202DE9F043044685B008
:20657C00084611F801CBC24FC24B2C22BCF1070F4FF0000904F5A47604F1760504F1FD08E8
:20659C0000F03181BCF10F0F0CD0BCF1110F00F0D080BCF11A0F00F0E280BCF11B0F00F09A
:2065BC00128143E198F800309A0703D40F2188F81C1075E02878012804BF68780F280CD020
:2065DC00687908B16A7812B12A7B012A07D1580703D40F2188F81C1062E0232265E010B119
:2065FC006878012802D0A87E012807D1580703D40F2188F81C1053E02A2256E008784A7874
:20661C0000EB022333808878CA7800EB0223738008794A7900EB0223B3808879CA7900EBA0
:20663C000223F380087A30724A7A887A02EB00237381C87A0A7B00EB0223B381487B8A7BE5
:20665C0000EB0223F381C87B0A7C00EB02233382487C8A7C00EB02237382C87C0A7D00EB87
:20667C000223B382487D897D00EB0122F28204F5AA70049071890391307A029021890191AA
:20669C00F0880090B38872883188204615F0C2FDC0B198F80000410706D40F2088F81C00D0
:2066BC00204615F0B3FD85E01E220F21204615F0A9FDF0880090B3887288A179002010F046
:2066DC0083FB7DE07088A882B188E9820221F08829742883A5F81290A18EA88AC91DE9812A
:2066FC00618EB0EB510F02BFE88AA18E884202BF288BE18EB0EB111F16D0687900281CBFF0
:20671C0068781A2803D00F21A972FE210DE0FC21204615F00FFEF0880090B3887288318886
:20673C00A07915F06BFD4BE00021204615F002FE46E00F7837761A2F4978717676D11868EE
:20675C00A779411C574301F807901968A37912FB03F20A4482F80490A179707E5DE094F8AA
:20677C0006C018680E7812FB0CFC604400F1210C06F01F019CF80000B60940B19CF801006B
:20679C00F040C00703D594F89601042805D120221A21204615F036FD12E08CF80310A1792B
:2067BC00186812FB01F28118204681F82360002115F02DF920B938784FF4804109F0A8FBCD
:2067DC004FF0010936E0A179186851430144C88808B981F80190A179186812FB01F281187D
:2067FC0081F80490ECE709780F2919D01A291DD1A1791868514301441A2081F80190A179F9
:20681C001B6812FB01F2991881F8049098F8021001F0FB0188F80210A1790CF0A1FECFE78F
:20683C0098F8001001F0FD0188F800100146204615F0A0FC68781A2815D1A878182818BF90
:20685C00002803D0152818BFFC280CD12E78204615F0BCFC012E03BF1A20A872FD211A21A5
:20687C00204615F067FD484605B0BDE8F08300BFC70F0020943A00202DE9F043A24CA3490C
:20689C00A34E20700A22002008600D23A14840F2222102704380818085B09F4A9F4810606E
:2068BC0037789F480770FF2F7178417008BFFF29B2788270F378C370357905717679467174
:2068DC0014D1FF2A08BFFF2B10D1FF2D08BFFF2E0CD194490A7802704B7843708A78827084
:2068FC00CB78C3700A790271497941718E4902788E4D8F4E8F4F0A7043784B7082788A70D1
:20691C00C378CB7002790A7140798B4A4871FF2028706870A870E870287168710020874947
