:20000000003C01202142010039FB021039FB021039FB021039FB021039FB021039FB02107B
:1C00200039FB021039FB021039FB021039FB021039FB021039FB021011FB021002
:20003C002DE9F04FC54D4FF0FF30686000272F604FF0020AC5F808A0ADF12C0DEF6010204B
:20005C0019F0BBF8286140B1076005F1140141602C69876005F15006E66093A06861082603
:20007C00EE614FF0FF34AC6140202D6219F0A5F805F114043946B24B686218B1CA00875043
:20009C0082185360491C0829F7DB8AA028650326AE654FF0FF336B651820ED6519F08DF843
:2000BC00002828660AD087A10160A649416087A28260C16002D087A202614161AF624FF0FF
:2000DC00010BC5F830B04FF0FF30E86208206C6319F073F8A86318B1076005F13C01416029
:2000FC007EA00626E8634FF0FF346E6405F128032C643020AB6419F060F80646002EEE64CE
:20011C0018D07CA03060904870607CA1B160F06010D07CA131617EA2706106F118042260F4
:20013C00F06107D07CA1316280A2706206F128042260F06219F02EFD14F094FD061C00F005
:20015C004F8618F015F981498446384631F80C4F002C40F041864FF6F8720A804E607C4C30
:20017C0020708F607068E060604618F0E4FA04F144063946304619F009FD764841F2883252
:20019C003B4626617449009004F1500014F00CFF724E73493A46152306F12A000090102085
:2001BC0008F03EFF6F4910203A46534608F038FF4FF480605946324605F064FF40F20240B8
:2001DC005946721C05F05EFF40F203405946B21C05F058FF40F206405946F21C05F052FFEB
:2001FC00321D40F21140594605F04CFF721D40F21B40594605F046FFB21D40F20D40594650
:20021C0005F040FFF21D40F21240594605F03AFF06F1080240F20C40594605F033FF06F1F2
:20023C0009024FF48360594605F02CFF06F10A0240F20740594605F025FF06F10B0240F248
:20025C001440594605F01EFF06F10C0240F21640594605F017FF06F10D0240F2154059461A
:20027C0005F010FFDC4910205A4608F0D9FEDB4910204FF0FF3208F0D3FE1020DFF8609313
:20029C000090D94AD748132349460190102008F0C7FE202018F091FF0146D448804681604B
:2002BC00002970D060E0C046576F726B207769746800C046536574204175746F436F6E6E7B
:2002DC006563740044697361626C650047726F757020410047726F757020420053657420E9
:2002FC00436F6E6E2050485920507265666572656E63650031204D62707300C032204D6280
:20031C00707300C03120262032204D62707300C0436F64656400C0463120262032204D6266
:20033C0070732C202620436F646564004175746F20504859206368616E67650000340020C9
:20035C00B1560100B98E00009DC10000F41D0020BC16002006260020E16B0100481E002092
:20037C00B9310100895901004FF6F870C01D16F0D7FACF49102008F1140200901123019185
:20039C00494608F04DFE03238DF81CA058468DF81D3004228DF81B00C6498DF81E200DF102
:2003BC00120338460A6809791A600DF11B02197159460EF037F85846594607AA0EF032F899
:2003DC00504659460DF11D020EF02CF8032059460DF11E020EF026F8042005210DF1120235
:2003FC000EF020F804F1180004F13C02B249C8F80400102008F014FE207816F067FFAF4996
:20041C000246102008F00CFE207816F05FFFAC490246102008F004FEAA491020FB2240F66D
:20043C00480308F0FDFDA8491020A0A208F0F8FDDFF8989209F1180009F10C010EF0B6FE47
:20045C00A349C9F8080018F091FDDFF88882D9F808004FF4E0214246521E16F02FF9D9F840
:20047C0008004FF4E021424616F028F9DFF86882D9F808004FF0C0514246521E16F01EF966
:20049C00D9F808004FF0C051424616F017F9B84609F12400C8223B46C949CDF8008014F097
:2004BC0083FDC8484FF6F877C9F80400781D12F065FA207816F00AFFB14609F11007034629
:2004DC0004225046C04900901020019708F0A8FD04F1E80704F1E800C02209904146384605
:2004FC0011F055FA4FF6F876F61D0820401E27F8186BFBD14FF0FF30414613F01DFAA060C7
:20051C0041464FF0FF32CCA02860284617F0AAF9A068DFF838A358B1AF684FB1514607271D
:20053C000861CB4E0F702846CE6016F06FF9A068554629784246CEA317F027F809F114091A
:20055C00CDF82890E06800214FF040424FF0FF3319F018FB5FEA000BF4D0002002900DF183
:20057C001A0102AA04A816F0E3FB002840F0A381BDF81000102840F09A8120789DF81A10ED
:20059C00884240F09481029908884FF6FF72824200F08D810E463078913829D01F3803D0A5
:2005BC00203800F0818182E13379A0682A787E2B04D07F2B0AD10989B3A301E0317AB6A34D
:2005DC000091521CD1B2002216F0DFFF317906F1080019F0D3FA6AE11D7A01007160010043
:2005FC009973010078BD01008C150020D419002070780E3841D0401E26D0401E00F0338139
:20061C002E3840F05481B0780C2840F05081F778A068297887B9F279012A08D0022A08BF3D
:20063C00C6A205D0032A0CBFC5A2C7A200E0CCA20092891CCBA301E0491CCFA3C9B2002251
:20065C0016F0A3FF0C2014E0B08842F23201814240F02D81B278A06829781A2A1ABF0092F4
:20067C00CAA3D2A3491C0022C9B216F08EFF42F23200314610F00EFE19E1B168B78808782C
:20069C0041F20542BF1A29D0A7F62B47002F40F00E81002840F00B81C8780090087901902F
:2006BC00A1682878D5A38C46C01DD6E000C046C084BD01003DBE0100D17A0100D96C0210F1
:2006DC002D6D02100D520210397F01101C210020E16401000E0005800E000010B168491C46
:2006FC0091F902A0002840F0E2804A78087800EB022017F0E9FDD4F808C095F800E007466E
:20071C00082F80F2A780BAF17F0F00F086800998F90001EB07114618727C531C73748A18DC
:20073C00121882F80CA0727C4FF00508434640180C30002192FBF3F303FB08F3D21A4346F4
:20075C00727410F9012B5B1E0A4411B2F9D1404691FBF0F040B2B074F37C002B5DD110F13D
:20077C001F0F4FF0000904DD337D022B18BF002B2CD196F9120010F11E0F07DA10F1290F41
:20079C0004DD337D012B18BF002B14D110F1330F04DD10F1280F40DA337D33B910F1320F45
:2007BC003BDA04224FF0020911E004224FF001094FF006080DE04FF00108424609E0C0463F
:2007DC00D5880100097D010075AA000002224FF00208737D984502D1B07D022801DB9845DC
:2007FC001BD0308811464B4615F0A0FF0120F074707D80451CBF0020B075B9F1000F06D0C8
:20081C00B9F1010F14BF4FF002084FF0060886F81580D4F808C095F800E0F8000999CDF826
:20083C0000A000EB0710401890F91200C2A301900EF1050011E0C04653696D706C6520503C
:20085C0065726970686572616C00C0463024002015D600000EF10100BFA3C1B200226046BE
:20087C0016F093FE23E00820002107F07BFD1EE03D3D3D3D3D3D3D3D3D3D3D3D3D3D3D3D3C
:20089C003D3D3D3D00C046C04D54552053697A653A20256400C046C046432056696F6C6184
:2008BC007465643A20256400084601F019FF029808B118F042FC5FEADB70FFF443AE20690B
:2008DC0019F058F900287FF43DAE2069064619F04DF9864208BF002602D0866816F03AF84B
:2008FC00002EECD03078401E082800F21E82DFE810F0EB01A901C900A5008F0075001A023F
:20091C001402090070684788384617F0DDFCA1682A7808280EDA099BC10001EB0011C91891
:20093C00C87D012840F00182C5493A46102008F077FBFAE1571C88A39CE0C046324D00C018
:20095C00434F44454400C046556E6578706563746564205048592056616C756500C046C00D
:20097C00314D00C0504859205570646174656420746F20257300C046504859204368616EF9
:20099C006765206661696C75726500C05048592055706461746520537461747573204576B4
:2009BC00656E743A203078257800C046504859204368616E6765206661696C7572652C2084
:2009DC007065657220646F6573206E6F7420737570706F7274207468697300C002200DF11E
:2009FC001F0114F079FE002840F09F81032001210DF11F020DF016FD97E1C0465258506874
:200A1C003A2025642C20545850683A20256400C07768787A48B1AB4800902978A06800226C
:200A3C00B1A3C91CC9B216F0B0FDA6480090B249FA880023102008F0F3FA76E17268107946
:200A5C00A1682F781278DAB1521E10D0521E08D0521E40F06A8100280EBFB8A30090BCA353
:200A7C0007E0002808BFC0A303D0C4A305E018B9C8A3FF1C88464AE1CAA3FF1C884645E136
:200A9C00CDA3F6E7D6F804802978A278A0686769D8F800300FF23039091D5B1E73D05B1E43
:200ABC001AD00E3B00F0BD80103B40F0BF80002008AFCF498DF8200001230097102008F089
:200ADC00AFFA9DF82000A02800F0B080A278C749102008F0A5FAA9E00097C9B200224B4675
:200AFC0016F053FD03AF00200390C1490097A2780123102008F094FA0398A02800F0968021
:200B1C00A02003AF0390C9490097A2780123102008F086FA03A80090C449A278022310206E
:200B3C0008F07EFA00200090BF49A2780346102008F076FA7AE0C046525353493A256420F2
:200B5C0064426D2C2041564720525353493A25642064426D00C046C0436F6E6E65637469EC
:200B7C006F6E2068616E646C65206973206E6F7420696E2074686520636F6E6E4C697374C1
:200B9C002021212100C0D8F804000078824237D1A4490A9A1020002308F042FAC0B208B19B
:200BBC0017F02CFE0B2018F008FB074602203870FF237B70DD22BA700323FB7002463A71E1
:200BDC00F0237B71FF22BA710323FB7194493A72AA237B72BB22BA72A2781020822308F0E9
:200BFC001FFAC0B208B117F009FE8C4910200B223B4608F015FAC0B208B117F0FFFDA27885
:200C1C0040F6B830884900900123102008F008FA18F0A8FF606100902978A0684B46091D8B
:200C3C0000E074A3C9B2002216F0AFFCD8F80000B0F1004F79D0D8F8040015F08BFE74E094
:200C5C000D2B021070680078010921D240096CD30E2017F06DFE002867D16A68A86891687E
:200C7C00814213D0B0F1FF3F5FD0116951F830702FB901EBC001486815F0C8FD55E0116983
:200C9C0001EBC0014968C0B288474EE0D068F3E70D2017F04DFE002847D16968A8688968C8
:200CBC00814208D0B0F1FF3F09D0401C16F00CF8B0F1FF3F02D1002016F006F8A8600BF086
:200CDC00CBFE32E040E2010070682F78D4F8088003787F1C93B19B1E27D102200DF12101DA
:200CFC0014F0FAFC47A30FE050617373636F64653A20256400C046C0496C010000200DF156
:200D1C00210114F0E9FC42A39DF821000090F9B24046002216F039FC07E07068B0F801008B
:200D3C000CF0AAFD05E012F077FF706808B115F011FE304615F00EFEC1E5C046426F6E643C
:200D5C002073617665207375636365737300C046426F6E642073617665206661696C6564B2
:200D7C003A20256400C046C0456E6372797074696F6E207375636365737300C0456E637222
:200D9C00797074696F6E206661696C65643A20256400C04650616972696E6720737563638E
:200DBC006573730050616972696E67206661696C3A20256400C046C050616972696E6720B3
:200DDC00737461727465640074696D657374616D70313A20256400C0401C0628FFF4B6A97C
:200DFC0018F047FA0BB0BDE8F08FC0466502021029DC01104164762053657420446F6E650D
:200E1C0000C046C04368617220333A20256400C04368617220313A20256400C0B9FF000052
:200E3C001DEF0110F1560110ED74011089B8011038B586B004468DF805104FF6FF7201207F
:200E5C00ADF80220090ADFF85C5AADF8000002238DF806108DF8043069462A78204618F032
:200E7C007DFE162803D12978204618F073FE07B030BD3EB504000D461ED0DFF82C0A0068F8
:200E9C00224618F063FEFF2815D000200090002301AA294620460DF06FFE60B99DF80400EA
:200EBC0000F075F9C00606D59DF8040000F06FF910F0040000D001203EBDFEB516461524EE
:200EDC004FF6FF7290420D4615D100208DF80400DFF8D0799DF80400F97988421AD2324633
:200EFC00294600F03AF800B100249DF80400401C8DF80400EEE718F025FE50B100F0A6FB60
:200F1C0040B99DF804003246294600F026F8002400E014242046FEBD7CB50D4604460621DC
:200F3C004C43164600F080F8A8B900F078F890B99DF80700002E14BF054320EA0505E9B2A4
:200F5C00814206D08DF807506A460821A0B216F04DFC012076BD002076BD2DE9FC41064640
:200F7C00344606235C438846154600F05DF8002852D100F054F800284ED1DFF82879387AAD
:200F9C00800017F0C7FE040002D100F02FFA43E0397AE03689062246090EB0B216F0FEFB9E
:200FBC00002835D1204600F058F85FEA08000ED13A7A9206120E0021204617F087F838BBA5
:200FDC003A7A92000021204617F00CFD16E0214600F030F858B9280004D02146002000F01F
:200FFC0029F810B900F0E1FB16E0A0F800808178A9420DD085700DB900210180204600F09D
:20101C002CF8397A89062246090EB0B216F0EEFB00F0CBFB012000E00020BDE8F681062263
:20103C00FF21684617F052B820346A460821A0B216F0B4BB70B5DFF86C381D7A002200E088
:20105C00521CD4B2AC4206D231F824608642F7D101EB840070BD002070BD10B50021DFF8D6
:20107C0044280AE030F82130DB4320F8213000EB8103491C9C78E4439C70137A9942F1DBAF
:20109C0010BD2DE9FE4FDFF81C480646207A0F4691469B46800017F03DFE5FEA000803D1EF
:2010BC0000F0A4F90A206CE00C9D0297B246062717FB0AF7029A07F12000082100F064F86E
:2010DC008DF80400304600F09FF8227A9200FF21404617F087FC9DF804000090E036217A36
:2010FC0089064246090EB0B216F080FB009E02990643206A082200EBCA0017F069FCBDB1FE
:20111C000299887900232A4600F0010018F016FD00281CBF9DF93C00002803D0DFF88C172E
:20113C000120087007F123002A4600F02CF806435FEA090205D007F121001C2100F024F887
:20115C0006435FEA0B0205D007F122001C2100F01BF806430D9A62B107F1240000F013F88B
:20117C00054625370EAA0421B8B216F03FFB05432E43207D08B100F09EFA404617F0D2FD32
:20119C00F0B2BDE8FE8F102180B216F02FBBE0B50623584320306A46082180B216F0FEFA5A
:2011BC0010B99DF807000EBD00200EBDDFF8F406007808210CF094BC38B50025DFF8E44627
:2011DC0019E0206A062313FB05F300EBC5022033082198B216F0E2FA58B1206A0622FF210C
:2011FC0000EBC50017F0FEFB206A00EBC5010022CA716D1CEDB2E1798D42E2DB207D10B11F
:20121C00BDE8314057E231BDF8B5DFF89816DFF8A036C9791E680C460A4600E02A46D5B255
:20123C003DB1551ED2B2324412F8017C8742F5D12C46E4B220464D1E07E01718165C7F78C9
:20125C0017541A680244401C5670A8421A68F4DBAC4204DABDE8F840052016F0C7BAF1BDDF
:20127C0070B50024DFF83C5600E0641CE879E3B283420BD22B6AE6B20622FF2103EBC6007F
:20129C0016F024FF0028F0D0E0B270BDDFF82426117839B1DFF8180601680C78204600F096
:2012BC0013F8204670BD38B500200024DFF8F45503E0E0B200F008F8641CEA79E1B2914275
:2012DC0001D20100F5D032BD2DE9F84F83465D46062313FB05F58EB005F1200701AA082141
:2012FC00B8B216F05BFA002873D10622FF2101A816F0ECFE00286CD1DFF8A865307A80004D
:20131C0017F008FD5FEA000903D100F06FF80A2061E01C22FF2103A817F064FB327A920010
:20133C00FF21484617F05EFB05F123040AAA1021A0B216F033FA60B91022FF210AA816F0D9
:20135C00C5FE30B99DF80A0001A900F0010018F0F1FB082200F042F801AA0821B8B216F0FF
:20137C0045FA8DF8000003AA05F1210000F03AF8074605F1220003AA00F034F8804603AA06
:20139C001021A0B216F032FA044605F1240003AA102100F028F88246253503AA0421A8B2DC
:2013BC0048EA070716F022FA2743317A9DF800504AEA0707074389060BF1E0034A46090E14
:2013DC0098B216F013FA0743484617F0ABFC3D4300E0002528460FB0BDE8F08FFF2101A86F
:2013FC0017F000BB1C2180B216F000BA042016F033B82DE9F84187B0FF208DF80000DFF8CA
:20141C00A454E87917F086FC040003D1FFF7EEFF0A2030E01022FF2103A817F0E3FAEA7995
:20143C00FF21204617F0DEFA0622FFF7D7FF03AA1021022016F0DAF9064603AA1021032011
:20145C0016F0D4F906436A460121042016F0CEF90746E9792246052016F0C8F9054601AA98
:20147C000621062016F0C2F9804600F09EF93E432E4348EA060008B0BDE8F081DFF82414EE
:20149C004088097816F012B9F0B5A9B006460D46144618F057FB08B91420ACE0A42200215D
:2014BC00684617F09FFAADF800600DF12607DFF8F463F078B17B8DF80400F07B8DF8A000B7
:2014DC00279861F30000B17B27908A074CBF0222002220F0020010432790CA064CBF4FF4DE
:2014FC008072002220F48070104327908A064CBF4FF40072002220F40070104327904A065E
:20151C004CBF4FF48062002220F480601043279049074CBF0421002120F0040008432790A8
:20153C00307C02280CBF01200020787418F0FEFA412807DB307C00B108209DF89910084368
:20155C008DF89900B07CB8B10121B974202206F18C010DF1390017F03BFA202206F1AC014E
:20157C000DF1590017F034FA202206F1CC010DF1790017F02DFA00E0B874707B8DF8050097
:20159C0090B1DFF83473102207F110010DF1060017F01EFA9DF89900082805D1102239462D
:2015BC000DF1160017F014FA307B8DF8260030B11022DFF808130DF1270017F009FA3079B3
:2015DC0048B1022D18BF032D03D1279840F002002790012100E000219DF899000143B07887
:2015FC008DF8991000B1042001438DF899106846214618F097FA29B0F0BD2DE9FC41154678
:20161C0015244FF6FF72904288460DD10027A54EF179F8B2884216D22A464146FFF77CFCFC
:20163C0000B100247F1CF3E718F08CFA50B100F00DF840B99DF804002A464146FFF76CFCD9
:20165C00002400E014242046BDE8F681002100910023417901AA01F00101801D0DF08CBAA3
:20167C0070B504460D4606204543082B88B0164603D1300758BF223500D521351C22002114
:20169C00FFF7ADFE01AA1C21A8B216F087F880B99DF81E00C01F0A280BD29DF83000009097
:2016BC00F20801AB02F0010206F00101204618F035FA08B070BD38B518F02CFA0024794DF4
:2016DC000FE0286A0622FF2100EBC40016F0FEFC28B9286A00EBC401002018F017FA641C9A
:2016FC00E4B2E8798442ECDB31BD3EB50C46002501460095002301AA20460DF03DFA38B9BD
:20171C009DF80400FFF743FDC00601D401203EBD00203EBD2DE9F041694F3C68064688464F
:20173C00154603E02089B04224D02468002CF9D10C2017F0EFFA040019D0268184F80A8088
:20175C0000202060E07245B10821284616F0E6FD606018B900F029F80AE06060396811B94E
:20177C003C6004E0014608680028FBD10C600CB9152018E018F0C6F908B1002013E0012010
:20179C00E0722A4641463046FFF77EFE04464548C06900281CBF4368002B03D0002200210D
:2017BC00304698472046BDE8F081204617F0BABA38B505464248046803E02089A84204D0E3
:2017DC002468002CF9D1012032BDE07A012807D100F05CF820B13348007804210CF080F95E
:2017FC00E17A491CE1722846C9B200F002F8002032BD38B5022904462A4D02D003290DD024
:20181C001EE042F6C921FFF713FB02001CBFE869002818D04368B3B105210CE042F6A6212A
:20183C00FFF706FB01001CBFE96900290BD04B684BB102460421204601B0BDE830401847BC
:20185C00BDE8324000E031BD10B51D4A1468002101E0214624686CB123898342F9D120680A
:20187C0000290CBF10600860606808B117F05AFAFFF79BFF002010BD0246042010490968F1
:20189C0019B10B899342FAD1C87A70470C48006828B1006818B1C17A0029FAD17047002069
:2018BC0070470000041C0020680F0020283A0020BC390020273A002074370020A4370020A0
:2018DC00C03900202DE9F04385B0064600208946009090461C46B179002304AA30460DF0E4
:2018FC004BF920B1FFF7BCFC8DF810001BE0D4B19DF810300620434323336A46102198B2F2
:20191C0015F04CFF78B91022FF21684616F0DEFB48B9B079314600F0010018F00BF910B1EC
:20193C00194901200870194F9DF81000F979884227D201200390009443460C980D990E9D88
:20195C00019002914A469DF810003146FFF799FB044655B1397A9DF810008906E0302A465A
:20197C00090E80B215F042FF0443200005D09DF81000FFF7A9FCFFF71FFC204605B0BDE86F
:20199C00F0831520FAE700BF283A0020041C00202DE9F84F012015F0ADF8012816D1DFF812
:2019BC0098663078002118F0A9F8040004BF002015F052FD00202072201D0DF0D9FF05F0A7
:2019DC0049F8050003D1812018F094F830E301206871DFF86826DFF868064178491C417016
:2019FC00A879A0724020317811700CF0F5FE2860616D4A78206DD10620D5816C0A681179C5
:201A1C00032908D0816C0868007903280CBF0120002015F021FD206D816C0A6890F86C0096
:201A3C0002F1080701281CBF002015F015FD216D486F296800F5B060C8604AE0C16E0A687F
:201A5C001179032908D0C16E0868007903280CBF0120002015F000FD206DC16E0A6890F8D5
:201A7C00980002F1080701281CBF002015F0F4FC226DB5F87401D2F8A0102A68DFF8C4350A
:201A9C00DFF8C465D16097F82690B9F1030F1BD8DFE809F002050E1101F5B06101E001F541
:201ABC003471D16005F59A711888088718880EE001F5355101E001F6B871D16005F59A71BF
:201ADC0030880887308802E001F5B061D160A5F8740106222868DFF87465C168DFF8708562
:201AFC0001F59071C160B91C3878C0F3801085F82E0105F5947016F06BFF042207F10E01A3
:201B1C0005F1240016F064FF306895F8069000F10C03042207F10E0103EB491016F058FF9A
:201B3C003068AB7900EB4313032207F1120103F1100016F04DFF05F12C09787D89F8020063
:201B5C00022207F1160105F1300016F041FF022207F1180105F1320016F03AFF022207F112
:201B7C001A0105F1340016F033FFB9F808006884022207F11C0105F1360016F029FF99F803
:201B9C000200B9F80A10400089F802000901B9F80400A9F80A104000A9F8040089B2B9F84E
:201BBC0006004000A9F8060003046A8C521CDB0B5A438A4201D280B230B998F80000802143
:201BDC000BF08EFF3B2133E105F12E01284617F08DFF0520A8814FF01C0A284617F082FF22
:201BFC00052207F11E0105F1610016F0F1FE97F82300400989F8000017F070FF688205F569
:201C1C009A72618D401AD08005F1610197F82300DFF8407400F01F0089F80F00284617F05B
:201C3C0059FF616D4A78206DD1064CBF816CC16E41F62102086800210171A97938681AFBE1
:201C5C0001F142520021AB791AFB03F303445980AA791AFB02F210444160616DDFF8F803B1
:201C7C004A78D1060DD5DFF8F4138A7851060AD5DFF8EC23138841F20A418B4208BFDFF84D
:201C9C00E403C5F89C01D5F89C11284688473A68A97902F10E031AFB01F15854AA793868F2
:201CBC001AFB02F202440020D0733968A87901F10E021AFB00F0115C89F80D10606D4178FC
:201CDC00CA061DD595F8960108B915F0C5FBA97938681AFB01F1014495F89601421E0A746C
:201CFC00A87939681AFB00F00844002141743A68A97902F112001AFB01F1002242522BE04E
:201D1C00A97938681AFB01F10144206D90F840200A74A87939681AFB00F00844216D91F87C
:201D3C0041204274206D3968AB79403001F112021AFB03F34188D15205F5CB7100780122E0
:201D5C0000F0030082400A70226D92F84000800814BF0120022008713968A879DFF808B374
:201D7C0001F1140231681AFB00F301EB4010D050A87939681AFB00F00844BC498161DBF875
:201D9C0014000078C107DBF8141009784CBF1F200F208A07DBF81410097848BF40F0200082
:201DBC004A07DBF81410097848BF40F040000A073168AA7901EB421348BF40F08000187278
:201DDC00A979306800EB41120B2050723168AA7901EB42100421A64A81721078012806D178
:201DFC003168A87901EB40120121D17207E0DBF824003168AA79407801EB4213D8723168F4
:201E1C00A87901EB40121F2111763068AA7900EB421100204876A8790CF022FCAA793168B2
:201E3C0052018850AA7931685201885820B90721284615F04FFCFBE08E48AA79016801EB84
:201E5C00021017F043FEA87931688A4B01EB4012196801EB00105060A979306800EB41121A
:201E7C005168C9F83C10AA7952018158C9F84410042198F800000BF033FE616D4A7838680B
:201E9C00D10648BF02210AD4A9791AFB01F101440A7C02F00302022A14BF04210621B9F860
:201EBC00042095F806C04FF4C8738A18698AAA615143B1FBF3F35B1C6B611AFB0CFCD5F81E
:201EDC0000E06044DEF80CC040F6C41101FB02C2D21AA2F5A8628260AA7938681AFB02F2BA
:201EFC0083189A682B689A6000F10C03AA791AFB02F20C309B5C03F0EF038354A8793A68BE
:201F1C001AFB00F002F10C030C321B5C03F07F031354A8793A681AFB00F002F10C030C3205
:201F3C001B5C03F0F00343F002031354AB7938681AFB03F31844427B02F0F00242F0010288
:201F5C004273AA7938681AFB02F2024490682B6818613068AB7999F802C000F114026869B3
:201F7C0040005B0111FB0C0000F5F660D05095F8960104280DD13068AA7900F114034FEAFC
:201F9C00421C143053F80C20AB795B0102F56162C2503068AA7900F114034FEA421C53F81B
:201FBC000C20C5F83421AA7900EB4210C37C03F0F00343F00403C374DBF830003268AB7910
:201FDC00006802EB431CB9F8062042436423B2FBF3F35943A1F59661CCF81C103068A979E8
:201FFC0000EB4110C27E02F0F00242F00402C276A97938682A681AFB01FA00EB0A015160EA
:20201C0028460E2117F05EFD1B4907200870204614F098F819488178880704D5AA790021A2
:20203C00204617F04BFD28681549164A41618261BDE8F14F03F0AEB8D50F0020D70F0020B4
:20205C00780E00208E0F0020900F00209C0E0020C70F0020980E002081010210C00C00203C
:20207C009A0F00204DE50110DCBE0100980C0020CC0F0020A40E0020C80F0020200E0020C7
:20209C00A1C40000020480802DE9F84F054688B0A978DFF84466002710294FF0060A3CD874
:2020BC00DFE811F0110015031503150315033C00CF0015031503780215010001CA0215031B
:2020DC004E0290020D036878002826D117F0F2FC044617F0EBFC054617F0E4FC8DF800000F
:2020FC0022461021022015F081FB2A461021032015F07CFB6A460121042015F077FB9DF846
:20211C000000012818BF032807D1012017F0C6FC02460621062015F069FBD8E268780028F6
:20213C00FBD195F80CB06C8900900023E97801AA01F00101281D0CF01FFD00284FF00108FA
:20215C0075D19DF80400FFF722F88146BBF1080F307A08BFB846800016F0DCFD050003D143
:20217C00042015F079F9B2E270789DF8041002280CBF0120002000905B464A462046FFF730
:20219C006FFA1422002102A816F02CFC9DF804001AFB00F0243002AA102180B215F0FEFA8D
:2021BC00B0B91022FF2102A815F090FF80B99DF804001AFB00FA0AF1250306AA042198B2E7
:2021DC0015F0ECFA02AA09F00101204617F062FC317A9DF804008906E0302A46090E80B2EA
:2021FC0015F0DCFA98B92846FEF737FFBA4609E005EB8000018819B18278204615F0D8FD18
:20221C000AF1010A317A5FFA8AF08842F0D3B07A30B95FEA897003D53178204615F046FA10
:20223C009DF80400FEF7F0FF284616F07BFD7078022805D1B8F1000F02D0204611F0BEFA88
:20225C0045E2A888FFF700FB17F020FC0028F7D1707D012808D1FFF726F8F279706A7775D3
:20227C00002116F0BFFB17E0B07D012803D1FFF7C0F8B77510E000240AE0706AE5B2415D59
:20229C00012904D1E0B2FFF71FF8716A4F55641CE0B2F1798842F0D3502015F089FEFEF70B
:2022BC008BFF14E217F02EFC00280CD0F06900281CBF0468002C07D0286900906B7B2A7BD6
:2022DC006989E81CA04701E268890121F4E168780024002840F01D81A879C10740F119818C
:2022FC000822002105A816F07DFBA88817F02AFC040076D06F694FB30622002107F1110079
:20231C0015F0E4FE68B306220021384615F0DEFED0B9387C00F001084FF0000909F1010975
:20233C0087F811900020009000230022414607F111000CF021FC00285FFA89F002D10028CE
:20235C00ECD101E000280CD1002068610622607900F001008DF81A00A11D05A816F038FBA0
:20237C001FE06F69EFB1387C00F001008DF81A00062207F1110105A816F02AFB607901287A
:20239C0005D10622A11D04F10C0016F021FB062207F11101A01D16F01BFB387C40F0020051
:2023BC006071A879410720794CBF40F0020000F0FD002071A9790A0754BF00F0DF0040F02E
:2023DC0020002071A9799DF81B00890801F0010108438DF81B00A9790A074CBF0821002167
:2023FC0008E0FFF753FA0028ECD0307804210BF077FBE7E708438DF81B00002000900023EC
:20241C009DF81A1004AA05A80CF0B6FB20B1FEF727FF8DF810001AE06869C0B19DF8100077
:20243C001AFB00FA0AF123036A46102198B215F0B5F960B91022FF21684615F047FE30B926
:20245C009DF81A0005A900F0010017F073FB9DF81000F179884258D2E968686900290CBF84
:20247C0000220A69002303930292019100902B69AA689DF8100005A9FEF703FE0446AF88CC
:20249C00B06A4FF6FF7848B906F1180100910223924A4146012017F0F5FAB062B16A19B310
:2024BC00FF200390022200230292019307A800900DF11203328B384605F084FA68B99DF829
:2024DC0012009DF8131000EB012290B228B1B06A418992B23846FEF7F0FC328BB06A00236C
:2024FC00414617F0CBFAB062200005D09DF81000FEF7EAFEFEF760FE200007D1707A002887
:20251C00A88804D1FFF754F903E01524A888FFF79BF9F06900281CBF4368002B0FD06A788E
:20253C00A888012198476878002808D1A879C10705D5F369A88822465C680321A047BEE049
:20255C00687806281BD1A88817F0FCFAB8B1F17C012904D013D3032907D00CD30FE04179F3
:20257C00A8880022FFF7D6F809E00022002140F2094003F087FDA888052117F07BFAF069E0
:20259C0000281CBF4368002B03D06A78A888022198479BE000970023E97801AA01F001012B
:2025BC00281D0CF0E9FA0028F3D19DF804001AFB00FA0AF1250305F10C02042198B215F0AC
:2025DC0015F983E0F06900281CBF4368002B03D0A888002200219847707810B9A888052110
:2025FC006AE0A88817F0AEFA040070D0A87AC10712D5009700236179002201F00101A01D1B
:20261C000CF0BAFA00281EBF60790028012803D0E868C0F3402028B1307C022807D1A87AE0
:20263C00010704D4A888032117F020FA4FE06179A88805F1080227E02F7BAD88284617F095
:20265C0081FA040042D017F05DFA00283ED100900023617901AA01F00101A01D0CF08CFACE
:20267C0028BB9DF80400FEF792FD07F00C07042F11D0082F0BD00C2F0FD100F009010929C7
:20269C000BD0617900222846FFF744F81EE010F0090F02D1F5E7C107F3D501220092A37C7E
:2026BC009DF8041002462846FEF7DAFF0EE070780028E6D10521284617F0D8F906E0FFF7D4
:2026DC00E5F818B1307804210BF00AFA0127384609B0BDE8F08F00BF041C0020F8B8010039
:2026FC002DE9F04FCC4AC84C064690461078A168B278ADF1240D401C002A00F08F81C54DFB
:20271C00521FB6A30FF2F02900F0C080521E4ED0521E1ED00A3A40F04182B088B77BADF857
:20273C00080070898DF8127060B9ADF80E00B089ADF81000F188ADF80A103789ADF80C70A2
:20275C00012000E00020B1498DF8130002AA0D4620E1AF49B288102002AB06F061FC98F8B8
:20277C000070A568F078BF1C30B90DF10A0011F01DFD8BA3009007E00DF10A0011F016FDB0
:20279C00B17800918CA30190F9B22846002214F0FCFE04F1340015F076FA041C00F0068234
:2027BC0020890BF069F8204614F0D4F8FEE1294610201A4606F034FC5FFA80FA98F800104B
:2027DC00A068002286A3491CC9B214F0DEFECDF800A098F80010A06800224B46891CC9B2EA
:2027FC0014F0D3FEB088814615F06EFD08282CD0C50005EB00152D19E835A868071C0ED00F
:20281C0016F049FD10B1384616F031FD384617F029F9384614F09EF8686814F09BF804F1C2
:20283C00340007684D4657B106463889854203D13046394615F076F83F68002FF5D1284624
:20285C0013F0F8FC284610F099F8BAF1000F08D104F1500016F00BFDCE480221012215F01F
:20287C0001F800250095CC4EA27810202B46314606F0D6FB0095E27810202B46314606F079
:20289C00CFFB98F80000A168C01C89E1294610201A4606F0C5FB5FFA80FBCDF800B098F8E5
:2028BC000010A06800224B46891CC9B214F06DFE7078002851D1B6F80AA004F1E80908200A
:2028DC0000254FF6FF72A9F1180737F8181F8A4204D0401E05F10105F7D127E0A7F800A0DA
:2028FC00032016F06AFC7860D0B1082101707868A0F801A0242016F060FCB86018B97868B2
:20291C0014F028F80CE0E80000EB0510484441680091B349806841F27072012312F044FB7F
:20293C00E800012100EB05104844017598F80050A768301D11F03AFC6D1C009000229DA381
:20295C00E9B2384614F021FE92480121022214F089FF04F1500016F088FCBBF1080F12DAF5
:20297C00607880B9002600968B4DA27810203346294606F055FB33460093E2781020294619
:20299C0006F04EFB12E1974DE2781020294606F047FBA2782946102006F042FB06E1C046FB
:2029BC004C696E6B20506172616D20557064617465643A20257300C04C696E6B20506172F2
:2029DC00616D20557064617465204661696C656420307825783A20257300C04600C046C002
:2029FC0044657669636520446973636F6E6E65637465642100C046C04E756D20436F6E6EB3
:202A1C00733A20256400C046BC160020D9570110F9DC0110095A0100302400207778002F2F
:202A3C0040F0C480F7798DF80970337A8DF80A30B2798DF8082000258DF80C508DF80B506E
:202A5C00F77A8DF80F70B37A8DF80E3002AA777A654B8DF80D70176852681F60C7B2084627
:202A7C0039465A6057A32A4614F08FFDA01CDFF880A1614F5D4900905246102007F140036A
:202A9C0006F0CEFAC0B208B115F0B8FE4FF00B0907F11400CDF8009056490190A2782B4607
:202ABC00102006F0BDFAC0B208B115F0A7FE1C2007F15C0300904F490193A278102001238B
:202ADC0006F0AEFAC0B208B115F098FEA2784B491020932306F0A4FA0095DFF8BCB0A2785C
:202AFC0010202B46594606F09BFAC0B208B115F085FEE01C3D490090524607F178031020EF
:202B1C0006F08EFAC0B208B115F078FECDF800901F3701973749E27810202B4606F080FA47
:202B3C00C0B208B115F06AFEE27834491020922306F076FAA946CDF80090E2781020594652
:202B5C002B4606F06DFAC0B208B115F057FE98F80070A568B01D11F029FBBF1D1FA10091DA
:202B7C004A461BA30190F9B2284614F00EFD11F053F8234840F6B83201231949009004F150
:202B9C00740012F011FA1F4802214A4614F06AFE0CE0C04600340020ED740110421CD5B275
:202BBC00C2B2084611462A4616F074F909B0BDE8F08FC046436F6E6E656374656420746F84
:202BDC0020257300496E697469616C697A656400257320416464723A20257300494400C039
:202BFC00E16B010065020210F7140020990101106779010049CD0000481E00201DEF011083
:202C1C0007260020003400202DE9FE4F04460020009000250CB914F01FFC04F1500841F60D
:202C3C002300D8F8007038807D8002223A737A73694620460BF04CF908B9072051E2009999
:202C5C0001B1B860B8682061DFF89C04017884F8B810D8F80400407A12F094FC25302076AE
:202C7C00207EB873FD73D8F80400017D022904BF002014F0F1FBD8F80400007D012802D162
:202C9C000020002104E083280CBF0620022020213874797404F12406DFF850A4DAF83C0063
:202CBC0041690868717901EB41010844B0F801207A82D8F80400417848060AD5607DC10657
:202CDC0004D5E07F40F04000E07702E040F04000607507F15C0904F1300089F80050B17E30
:202CFC00890001F0040189F80010B866607DC10656D5D8F8042051788A060CD500F0FE009F
:202D1C006075D8F80400417811F0030F03D1E07F00F0FE00E077607D16F0A0FEA075421CB6
:202D3C00387CC0F38001002392B200F0030016F091FEA0831E20A28B02F59B7393FBF0F09F
:202D5C001E2101FB1030C0B208B1C0F11E00821802F59B7262831E20A28B02F5967293B2B0
:202D7C0093FBF0F001FB1030A283C0B208B1C0F11E008018A08380B2E27D618B521E504333
:202D9C004018608307F13005608BB43080003866062089F80300E17F41F00801E17720E026
:202DBC0040F001006075D8F804104A78510744BF40F002006075607D16F050FEA075002380
:202DDC00401C82B2387CC0F3800100F0030016F041FEA083A08B00F59670A0833D6689F897
:202DFC000350A17D207D61F3050007F18801207508700322607D48708A70B07E800000F070
:202E1C00040040F003008870F27ED20002F00802104388700020C870C7F89000B08BC0F349
:202E3C000B00B083D8F80410CA7D40EA0230B0830022617D01F0FE0120460AF003FB019798
:202E5C0000271EE01C2010FB07F004EB000B01991C220BF1640015F0BBFD0BF16C00052176
:202E7C0001717F1CA28B92000260FFB2DAF83C104A691168737903EB43031944B1F80120C6
:202E9C004281E07D401E8742DCDB019F20460EF03BF9E07D012809D013D3032808D03EBF9B
:202EBC0004F164007860C8F818500AE07D6008E004F16400786004F18001C8F81810C8F89F
:202EDC00345041F6240038860021798607F13C05B868618B00EB8100B863022182202870F0
:202EFC006970002194F82100E97000F03F00A870D8F80400807D012818BF022803D100F0B0
:202F1C007F00401E04E083280CBF062002202021287169714FF0000BDAF83C0041690868F0
:202F3C00727902EB42021044B0F80110E980C7F86CB0D8F80400417811F0030F20D016F072
:202F5C0085FDF866DAF818000078C107DAF8181009784CBF1F200F208A07DAF8181009784B
:202F7C0048BF40F020004A07DAF81810097848BF40F040000A0748BF40F0800089F814003E
:202F9C0089F815B0D8F80410594A897C01F0030189F81510B07E800000F00400014389F841
:202FBC001510F07EC00000F00800014341F0100189F81510107838B199F8140000F0FE007A
:202FDC0041F0400189F8140089F81510E07F16F045FD84F82000204616F034FDE07FC10622
:202FFC0036D5D8F8040094F820204178521C88074EBFD21EF07F12182879C0F380010023C6
:20301C00D2B200F0030016F025FD30801E22308800F59670C0F11E0190FBF2F21E2000FBDA
:20303C0002113171D8F804104878810731884CBF00204FF49B70401830807080B86B31888D
:20305C0032795218A63200EB82007867022002E0C7F874B0002089F8170004F13000C7F898
:20307C00800007F18400D8F804104A78510707D504F13802026099F8150040F0200007E0F0
:20309C001C490A685168016099F8150000F0DF0089F81500A17F94F8200060F30501A177DB
:2030BC0040F60B002882A5F812B0DAF83800008880007865DAF83800008800B107202877B2
:2030DC000220687794F84510E983D8F804004178880744BF0121E983009808B109F082FF0E
:2030FC000020BDE8FE8F00BF1E3A0020DCBE0100880E00206C0F00202DE9FC47D44C0F4671
:20311C000646F80B80F00C826078B90F80F0AC81B90880F09F81DFF84C83F90A80F002811C
:20313C00390B80F0CC80380907D2F80FC0F02E8227F080470FF0ECFB28E216F036F8814629
:20315C0014F0F6FE002800F0B480082015F020FF002840F0AE80802015F01AFF002840F027
:20317C00A88068460CF0FEFF012803D10098002800F09F8094F84102002840F09A80002532
:20319C000126E8B215F01AFC48B1837A3BB1867290F9090006FA00F0C0B213F0DFFC6D1C02
:2031BC00032DEED3032084F8240004F5CE7015F0F6FF484616F042FCC34800252A46016833
:2031DC00056050F8081CD44940F8085C04F1600014F0BEFD40460068006B8047A168401AB2
:2031FC00010BE06AC1F1FF3282422CBF08444FF0FF30E06294F8300020B12069E16AB1EBD2
:20321C00C02F25D914F0A4FE294600B13146081C1BD0C24840F6090101804580417B06F017
:20323C000F0221F00F010A434273017B05F00F0321F00F0143EA010202732946416015F0E0
:20325C0051FD418811F4406FFBD084F83060E56211F0F6FED14829460560022014F006FC5F
:20327C00022013F089FE11200BF07CF8207818B96068503015F0E3FFC948007810B90E20CE
:20329C000BF070F894F8310020B184F83150052013F072FEC348A06284F82450B4F9B4002E
:2032BC00B4F9B610884214BF022007200DF06EFF02E0484616F0C2FB27F008073AE720B1E4
:2032DC00042013F059FE00206070656813F012FA38B128462D6A6FF4807100224FF0007372
:2032FC00A847E06858B140460068006B8047E2686168801AC860000BC8600026E660AA49EB
:20331C0004F16000002214F023FD0221D4F8A00084F8241018B104F1E00015F0A2FF27F458
:20333C00006707E715F041FF064614F001FED4F898100028894600F08480002900F081800F
:20335C009A49042504F16000002284F8245014F0FFFC304616F072FB04F5CE7015F01FFF9C
:20337C0040460068006B8047E0604FF0010884F80180284613F018FED9F810006060D9F893
:20339C001000816AC90803D3436A294600229847404610F0E3F9606880F8198060680BF054
:2033BC0079FA6568D5F808A040F60A02D01F564600F1010C00E01E46736833B119888A4201
:2033DC0003D0884218BF8C45F5D100217160727B08F00F0322F00F0213437373D9F80C2081
:2033FC001288904224D06046904221D02B8F03B3E96305F13802518095F8440001F00F0357
:20341C0020F00F00034385F8443095F8450008F00F0320F00F00034385F845307260707B4A
:20343C0001F00F0520F00F0045EA0001717300E0E160504615F056FC5146404614F016FBF8
:20345C0002E0304616F0FAFA27F480679EE0C046E00F002006F070FED4F8A00008B927F0C1
:20347C00020793E08C010010514A116841F08001116020B1042013F07FFD0020607015F077
:20349C0094FE80464B480068016804208847216A81421BD1357ECDB1A568BDB1D4F8A850B7
:2034BC006DB1E968098840F60300884204D0E9680988401C884202D106F1140001E006F15B
:2034DC00100012F033FB06E01410044040F6C411316171612062404616F0B0FA13F00AF915
:2034FC0080B1356A30466FF4807100224FF00073A847D4F89800002808BF47F0020701D0EF
:20351C000FF006FAF569002130464FF080630A46A84727F0005739E0D93B01000439002041
:20353C0015F043FED4F8B06066B306F1280106C90A234FF0E0450B40154008BF002B21D130
:20355C0006F1280191E8000306F1280595E8060006F1280322EA090221EA080183E806004E
:20357C0016F06CFAB16879B1B9F1000F08BFB8F1000F09D03069B6F93010B5684B464246B1
:20359C00A84701E016F05AFA27F4804727B104F1E000394615F065FEBDE8FC8700000460E3
:2035BC0062BD010059CC000099C000002D7F0100CC210840E00100102DE9F84FDFF858549E
:2035DC00A9780024FF2904BF002013F045FFA87815F0A4F9054605F1680605F5C9773168F4
:2035FC00086805F1900808B1EC8311E0B07B002804BFB07E00280BD198F80010002904BFC4
:20361C003878002804D1287F012804BF688CE8832989E88B4118491C6981284616F00AFAAA
:20363C0001281EBFDFF8F4030178012903D12989EC83491C69814FF6FF79B07E01280DD1C1
:20365C00B28B6989288916F0F1F938B1298968894A1C93B298422FD0B08B23E098F80000A0
:20367C0001280FD1B8F802206989288916F0DEF940B1298968894A1C93B298421CD0B8F81E
:20369C0002000FE03878012816D17A886989288916F0CCF980B1298968894A1C93B2984294
:2036BC000AD0788892B2904206D04844688180B216F0B8F94844E883387801280FD1288969
:2036DC007988401C80B2884209DB7C793C71022038702346A979224600200AF035F905F5F0
:2036FC009A71087920B128890021401CE9836881B07E012813D12989B08B4B1C9BB2984218
:20371C000DD1688116F08EF9804605F12E008188308C01FB080828460EF03EF803E005F103
:20373C002E01B1F80480EA8BDFF8F492501C00FB08F040F6C41808FB00F100912B68D3F8EB
:20375C000CE07144D960B74B196809788909032940F0168199F80F30B349DB0740F100818A
:20377C00B5F812C000230CFB00FC4FF4C87EBCFBFEFC0CF1010C0B80A861C5F814C085F8A2
:20379C0020204FF01C0BDFF8A4A2AB79DAF8000000F108021BFB03F3D1582A68116100F12F
:2037BC000801AB79D26868691BFB03F3121ACA50DAF80000AB7900F108021BFB03F3D1583D
:2037DC002A68916000F10C02A9791BFB01F10C30535C03F0F00343F002034354DAF800109F
:2037FC00AB798A1C1BFB03F30021D152387908B913F032FEDAF80000AA7900F11001387946
:20381C001BFB02F240088854A879DAF800101BFB00F00844002141743879042814D1A87950
:20383C00DAF800101BFB00F001F110021031135C3A7A43EA82030B54AA79DAF800001BFB00
:20385C0002F2024420205074DAF80010A87901F112021BFB00F0002111527549A8790A682A
:20387C0002F114034FEA401C143253F80C00AB79D5F814C05B0100EB4C00D050B07E022820
:20389C000DD10A68AE7902F11403760114329859AB7995F82E605B0118FB0600D05005F113
:2038BC002E0299F80F00C30773D5DAF80000AE7900F108041BFB06F60830A359AC791BFB93
:2038DC0004F4A3F5A8630351DAF80000AE7900F108041BFB06F6A3592C68A36000981B1A75
:2038FC0023610868AE7900F1140476011430A359AC79640103F5F6630351387904280BD1E9
:20391C000868AE7900F1140476011430A359AC79640103F5616303510868AC7900F11403FD
:20393C0064011859C5F83401424B186B0C68AE799288006804EB461742436424B2FBF4F488
:20395C0008FB04F0A0F59660F8613B480278012A48D10868A97900EB41120120D07248E0D4
:20397C000B885B1C1FFA83FCBCF1010F11BFB5F812C005F59A7EBEF806C00CF2DC5CF2E6E1
:20399C00698A41434FF4C873B1FBF3FC0CF1010CF2E6042C0BD10868AE7900F11404760176
:2039BC001430A359AC79640103F56163035138790B68AE7904280CBF4FF4AA504FF4E66009
:2039DC0003F114047601A359181A938808FB03F3A3F516739842A7D30821284613F07AFE7F
:2039FC00012016E0586A0968AA79407801EB4213D872A879DAF800102A681BFB00FB01EB69
:203A1C000B00506007210D48017028460EF046FC0020BDE8F28F00BF780E0020D10F002088
:203A3C00980C00203C0F0020103A0020980E00209C0E0020DCBE0100CC0F0020C80F0020B4
:203A5C002DE9FE4F0546DFF82404DFF824640278002A4CD0052A73D0062A00F08080072ABB
:203A7C0018BF082A00F0F7800A2A00F0D381112A02D0132A70D0F1E1DFF8F8331878002133
:203A9C0016F03CF804001EBF606D407810F00C0F2DD0216DC0064CBF886CC86E0622016838
:203ABC0001F10805A91C684614F092FF287800F00F0105291BD145096946C0F3801015F0E4
:203ADC00ADFF002813D03168684615F0A3FF0746316804F1380015F09DFF87420DD0606DFE
:203AFC004178C80604D440F2014015F08FFFBBE1607B40F002006073B6E133681E2010FB4E
:203B1C0007F6981906226946C01D14F061FF606D4178C806F0D5A17B0129EDD1DFF8580374
:203B3C008178480605D5E90703D4206D41F20A4102E0206D41F2044141804183418693E1CF
:203B5C0015F067FB0028FAD10EF070FB012802D0012015F057FF87E10EF04FFA84E1DFF824
:203B7C001C53286815F04AFF0400F7D020790328F4D1207A00F00F01072937D1C048006846
:203B9C004169497A4A1E11425ED0617A04F10A035A5C02F03F02252A56DBA17A8A09012A94
:203BBC0052D111F03F0F4FD0007C14F0B7FEE17ACA074CBF04F1110204F10B028B0748BF49
:203BDC00921D0B0748BF921CC90648BFD21C1621127852094A43AB498B180A31EB608A5AE5
:203BFC00428699898186DA89C2862DE000F00F00082829D1A17A880926D129B3A048016807
:203C1C00087C14F08BFEE17A074688071CD5062201F001015143601800F10C01684614F078
:203C3C00D7FE207AC009FF280ED0694615F0F6FE50B1306800F10D01684615F0DBFE18B98E
:203C5C000521384613F046FD2079032802D0002013F002FCFEE0DFF830B29BF80200002457
:203C7C00FF281BD014F05AFE804608F16C09D9F8040015F0C3FE2A460179032901D01100F3
:203C9C000CD08368197801F003008D06009003D50124009818B9BAE01000FAD0E4E05D7826
:203CBC0003F1020A34B31AF8010B784B01902C2098F806C01F6810FB0CFC67444FF0010E5A
:203CDC0087F805E0002A1F6898F806E007F11A0C019F10FB0EFE07F01F070CF80E7098F839
:203CFC0006701B6810FB07F01844019BC3F38113C3761AD10098032808F217171AD0ADB114
:203D1C0099F8000068B108F1F4000278012A0DD1564B1A78072A04D0082A04BFC0780128DF
:203D3C0004D13D217970012038709DE0584A1378012BFAD098F8940070B32D1FEDB2534617
:203D5C002A4640460DF0ECFB00281EBF51490878002807D13D21797001203870306815F0A1
:203D7C0045FE81E04C4801688847064698F80610DBF804204FF4D07041435018002280F8C5
:203D9C00412108F59E700168807949080DF0ECFE42490A68304690470098032819D0404882
:203DBC00416909788A0708D541690878C1074CBFE81C28461AF8000000E0812089F80800C3
:203DDC002A460098C3B29BF80200514605F094FD1DE09AF800001CB11B2804BF022D0125E1
:203DFC001C2803D22F490B5C9D4205D0B8700721404615F067FE0AE01C480178082951462C
:203E1C00404602D115F0CDF901E000F075FAD9F8040020E0244C207830B3244D286815F05C
:203E3C00EDFD08B3017903291ED1017A8A0611D5807AE178C0F38112914202BF217900F084
:203E5C001F00814206D1A078002801BF607800280121A170286815F0C5FD05E0002013F0FB
:203E7C00FBFA862015F046FEBDE8F78FC80F0020680F0020D50F0020C00C0020BC0A0020B3
:203E9C00540F0020E0070020780E002098390020D20F0020233A0020B01D0020B41D002089
:203EBC00DCBE010074BF01003C390020AC0C00202DE9F04F0F46380589B018D5DFF8E4538F
:203EDC002888FF280ED0C0B214F028FD040009D0A079162115F082FD204614F015FD2046E3
:203EFC0015F078FDFF20288087F40060D6E1F80504D50EF0C8FB87F48070CFE1B80604D58A
:203F1C0011F095FA87F02000C8E1F8070CD514F0D1FE30B100218160DFF88C03006800B1A0
:203F3C00804787F00100B9E1380704D512F0ADFA87F00800B2E1F8060FD500210022002371
:203F5C000691059204910393029101920091022015F03CFD87F01000A0E1B8070FD5002109
:203F7C000023069105910491039302910191009101223C2015F02AFD87F002008EE17907E1
:203F9C004FF01E08C94EDFF828A340F1CD80C9480022002108920791007815F0AFFD044670
:203FBC00C5488178FF2904BF002013F055FAA07A14F0B4FC05469AF8000095F82E91002863
:203FDC0005F5947B69D0606D807A022818BF032807D130680D3015F0F5FC10B93068C11DAE
:203FFC0007915946484615F019FDA0B3606D807C3368002818BF012804D11946584615F00F
:20401C0009FD04E05A464946184615F09FFDFF2843D018FB00F83068404406225946C01D67
:20403C0014F0D6FC306810F80810404400F1010BC01D41F0020908900622616DC87A00F07C
:20405C00010085F82E01606D00F10C0105F5947014F0BEFC21E05946484615F0AFFCE0B1A1
:20407C0030685A46494615F071FDFF2815D018FB00F8306840440D3015F0A4FC58B930682C
:20409C0040440D3015F09EFC002801BF30684044417F012901D149F0020905F12C004B46ED
:2040BC00017806914289120905920122698C0491C0880899029140080390CDF800B007983F
:2040DC0001900020A97915F081FCD5F89C017B498842A8790CBF0021012115F06BFC78481C
:2040FC00AB7902682C214B43134401221A73AB7904684B4323445A73AB7904684B4323445D
:20411C009A73AB7904684B432344DA73AB79006811FB03F10144002008740720A9790CF0F2
:20413C0000FD87F00400B9E038060FD50021002306910591049103930291019100910122BB
:20415C003B2015F043FC87F08000A7E0F8045DD55C4930680C680D3015F034FC002844D198
:20417C003068C11D0D3015F021FC3EE0606D4178480704F13E0526D5287802281EBF032856
:20419C006878012830D16978306804F1380215F0DDFC8146B9F1FF0F15D0306818FB09F962
:2041BC0048440D3015F00EFC68B930684844C11D0D3015F0FBFB30684844C11D062204F191
:2041DC00380014F005FC2878022818BF03280BD130680D3015F0F6FB30B93068C11D06228C
:2041FC0004F1300014F0F4FB2468002CBED13648DAF8042000784FF4805111F0B1FA10B1D7
:20421C008E2015F0CFFB87F4805047E0B80505D514F058FE2D4901200860FEE7780504D568
:20423C0014F0E7F887F4806038E0780405D5812015F0B8FB87F4804030E0B9042DD5244CE3
:20425C00206810B1002013F007F94FF0FF3020600020204C0DF04CFC216851F8202F684648
:20427C0090471D494A6B086BC96A24681B4B019200900293ADF810106B46194A19491A4843
:20429C0003921A4A07922568194AA8471949086003F096FD87F4005000E0002009B0BDE818
:2042BC00F08F00BFAE240020480F0020680F0020880E0020D70F0020780E00204DE50110FF
:2042DC00983900204C0F0020C70F00207C052043380F0020200F0020581F0020B18C0100F1
:2042FC00C18C01002C390020C82E00201EFB0080EC0A00201C0F00202DE9F043044685B0F7
:20431C00084611F801CBDFF8A883DFF8A8332C22BCF1030F4FF0000904F5A47704F16605E1
:20433C0004F1F40600F0C380BCF1070F00F08381BCF10F0F0CD0BCF1110F00F02781BCF1CF
:20435C001A0F00F03981BCF11B0F00F0648191E1707A820703D40F2184F8191159E0087877
:20437C004A7800EB02233B808878CA7800EB02237B8008794A7900EB0223BB808879CA7974
:20439C0000EB0223FB80087A38724A7A887A02EB00237B81C87A0A7B00EB0223BB81487BA2
:2043BC008A7B00EB0223FB81C87B0A7C00EB02233B82487C8A7C00EB02237B82C87C0A7D18
:2043DC0000EB0223BB82487D897D00EB0122BA48FA8201788A0658BF4FF01A0913D504F5BA
:2043FC00AA70049079890391387A029021890191F8880090BB887A883988204615F0CEFA94
:20441C00C8B14FF01E09707A410706D40F2084F81901204615F0BEFAF3E04A460F212046B4
:20443C0015F0B4FAF8880090BB887A88A179484610F092F8ECE004F1860079888180BA889B
:20445C00C2800222F98801810270A0F80290A18EC91DE983628E8188B1EB520F02BFC188BA
:20447C00A28E914202BF0089E18EB0EB111F1CD0287C012804BF687C0F2809D0687D00281C
:20449C001CBF687C1A2803D00F21A976FE2179E0FC21204615F016FBF8880090BB887A8877
:2044BC003988A07915F06EFAB2E010216AE0707AC20709D431781A200129707002D1FF221B
:2044DC000D213BE00D215DE085F8009085F8069001233371082204F1B00015F04FFA0146C0
:2044FC00022204F1B80015F049FA04F1A80801460822404615F042FA07460821404615F0A9
:20451C0039FA04F19C0804223946404615F036FA0421404615F02EFA04F1A00015F026FAC1
:20453C0004F1980015F01EFA6448018841F0800101803078012805D1FF220421204615F0F5
:20455C000DFA65E06E7C0F2E18BF142E07D00E2E18BF0C2E03D01A2E18BF162E11D12F7CCC
:20457C00204615F0F7F90421204615F0ABFA012F05D11A2EAE7614BFFD21FB2102E03146B7
:20459C0000E00421204615F09DFA41E00E783E761A2E497879766DD11868A679411C5643D2
:2045BC0001F806901968A37912FB03F20A4482F80490A179787E56E0A77918680E7857434F
:2045DC00074406F01F0117F8210FB60938B17878F040C00703D594F89601042805D1202251
:2045FC001A21204615F0D2F912E0F970A179186812FB01F28118204681F82360002114F019
:20461C000AFE28B998F800004FF4804109F068FA4FF0010932E0A179186851430144C88888
:20463C0008B981F80190A179186812FB01F2811881F80490ECE709780F2917D01A2919D1B3
:20465C00A1791868514301441A2081F80190A1791B6812FB01F2991881F80490F17A01F0D0
:20467C00FB01F172A17907F008FDD1E7717A01F0FD0171720146204615F068F9687C1A28FB
:20469C0012D1A87C17281CBF1028FC280CD12E7C204615F05FF9012E03BF1A20A876FB21D2
:2046BC001A21204615F00EFA484605B0BDE8F083C70F002098390020200E00209C0F0020D5
:2046DC002DE9F041FF2805462AD114F031FC10F01F0F22D0042011F0B9FF08B1042016E009
:2046FC00012011F0B3FF08B1012010E0022011F0ADFF08B102200AE0102011F0A7FF08B1DC
:20471C00102004E0082011F0A1FF20B10820BDE8F04112F009BA12F09FFE0020BDE8F08137
:20473C0012F002FA5FEA000814BFD8F804400024012D46F2A81740F6C4160BD0022D63D091
:20475C00042D00F0A280082D00F0EF80102D00F05181E2E7012011F079FF00281EBFDFF828
:20477C001403006800281CBF8788BF00102011F06DFFE0B1102012F0D7F905466E6846B97D
:20479C00022011F063FF20B1022012F0CDF905466E68012011F05AFF38B1B068C11BA0683C
:2047BC0013F056FB08B94046B8E72846B6E7022011F04CFF88B1022012F0B6F906460120B1
:2047DC00756811F043FF30B1A868C11BA06813F03FFB0028E7D03046A0E7042011F036FF55
:2047FC0008B10420E8E7082011F030FF30B1082012F09AF94168002990D1D4E7012011F0EB
:20481C0025FF00288AD0CEE7022011F01FFF58B1994801689948CA69017801EB8101531827
:20483C00DF88774307F51667042011F00FFF28B1042012F079F906460220C1E7082011F0DF
:20485C0005FF80B1082012F06FF905466E6846B9012011F0FBFE20B1012012F065F905469D
:20487C006E68022096E7012011F0F0FE28B1012012F05AF906460220A2E7102011F0E6FE3C
:20489C0008B11020B4E70220B9E7042011F0DEFE50B17B4801687B484A69017802EB011398
:2048BC009F89774307F51667082011F0CFFE80B1082012F039F905466E6846B9012011F0BC
:2048DC00C5FE20B1012012F02FF905466E68042060E7012011F0BAFE28B1012012F024F95E
:2048FC00064604206CE7102011F0B0FE88B1102012F01AF905466E68002EE8D1022011F051
:20491C00A5FE0028E3D0022012F00EF905466E68DDE7022011F09AFE28B1022012F004F938
:20493C00064604204CE7042069E714F06AFC08B1D0F89070042011F089FEA0B1042012F036
:20495C00F3F806460820756811F080FE002818BF002C16D0A868C11BA06813F079FA0028DD
:20497C007FF439AF1FE7012011F070FE60B1012012F0DAF80646082011F068FE002818BF4A
:20499C00002C3FF428AF0EE7102011F05FFEF8B1102012F0C9F805466E6846B9022011F063
:2049BC0055FE20B1022012F0BFF805466E68082011F04CFE002818BF002C3FF4F6AEB0682E
:2049DC00C11BA06813F044FA00287FF4EEAEEAE6022011F03BFE58B1022012F0A5F806461D
:2049FC000820756811F032FE002818BF002CB0E7082004E7032014F006FC08B1D0F89870DE
:204A1C00022011F023FE50B1022012F08DF80646102011F01BFE002818BF002CB1E704200F
:204A3C0011F014FE28B1042012F07EF806461020C6E6082011F00AFE80B1082012F074F8B2
:204A5C0005466E6846B9012011F000FE20B1012012F06AF805466E6810209BE6012011F0B0
:204A7C00F5FD28B1012012F05FF806461020A7E61020C4E6AC390020500F0020D80F002067
:204A9C00540F0020D90F00202DE9F84F0422FF21684613F0A7FFDFF88C63B0780024FF283C
:204ABC0000F0BE8113F03AFF0546B07814F0DAF8064605F217100178012908BF417800F0A9
:204ADC00008105F1740005F5927A817B022904BF05F174018C7395F89201022805F17400C1
:204AFC0008BF85F89241017F022904BF05F174010C77BAF80E1019B19AF80C0008F0F0FF08
:204B1C006889C94F288105F58D7BBA7AF879397B80184118F87A0818797B00EB0109BBF84D
:204B3C000400BBF80010401CABF804004944BBF80200ABF800101018ABF80200DAF80000FB
:204B5C00F0B1BA4995F806E00B681C2103F10E0C11FB0EFE0E331CF80E1030F811C0CC44D0
:204B7C0020F811C01C2195F806C011FB0CFC13F80C3000EB4300B0F84A105218A0F84A20A9
:204B9C0012F0E2F9F879002804BFF87A002805D1387B002804BF787B002840D0F481A0462C
:204BBC00F07EC00910D0307F00F00701022907DA00F0F802401C00F007001043307703E0F5
:204BDC00A879002110F038FB2989E8892C744118287FA981012804BF688CE883A9790122C7
:204BFC0007200BF09EFF787805F1740658B101212977B078002804BFB07B002803D1307FC6
:204C1C0008B9688CE8839AF81400002862D0022804BFF87A002858D18AF814405AE0A97976
:204C3C00002207200BF07DFFEC83317F11F0070F02D1F07EC00903D0A879002110F0FCFA4D
:204C5C00B87A38B1287F01284FF0010827D1688CE88324E0BBF80600401CABF806004FF0AD
:204C7C000208287CD8B172490868AB7995F82E6000F1140268694FEA400C40F6C4105B01B4
:204C9C0010FB06CC0CF5F660D0500968A87901EB4010C17C01F0F00141F00401C174A8891B
:204CBC002989814206D088429DD2081A41F2AB02904298DA287C08B1052901D0082100E0A9
:204CDC003E21284612F006FDAAE0787A10B102218AF81410F87BC1070DD538692968C86069
:204CFC0000F59070C86052480168A87901F114024001145014E04E48AB79026802F114018A
:204D1C005B01C858CAF810004848AB7901681C2001F108024343D0582968C860EC832C775B
:204D3C00444A50690078810702D5B87B802800D181203070404991F8200018B129460120C1
:204D5C0014F05DFA284609F05FFE02281BD1F079022805DB6A46394928460EF06FFC04463C
:204D7C00284614F0EFFD01285AD020000DD02246694628460FF0BAF838B9284609F044FE99
:204D9C00012802D14CE001284AD00121284614F0D5FDFEF711FC012842D028460EF0BDFBC5
:204DBC0000F0F8F9264F3868002839D0B888AA7990421CBF4FF6FD71884231D12148007B3D
:204DDC0013F0B8FF04002BD084F80080A8791E4960800A68A879115C217105F5C97210794A
:204DFC00607196F90010A171A4F80890BBF80200608113F05FFF050005D1FF204FF0FF3181
:204E1C002073216109E02878207314F093FD0146A86814F08BFD80082061204639688847EF
:204E3C00BDE8F18F780E0020980C0020980E00209C0E0020DCBE0100303700206421002070
:204E5C00800E0020C0240020B03900202DE9F84F054605F14C0AE87D9AF80010DAF804703A
:204E7C0081424FF00008C0F0938105F1280407F1900907F17306C34640F08C80A87F7075D3
:204E9C00E97FB175DAF808205278930710D5EA7FD30604D5C01E707501F0EF01B175C7F881
:204EBC0074B086F800800022B17D01F0FE016AE1910608D4E08B00B1E07E3076E08B00B17A
:204EDC00206AC9F80000DAF808004178CA070DD5E08B00281CBF206A002807D0C9F800006D
:204EFC00A17EE08B814238BF08463076E87FC1060CD5B86B217800EB8100B863B86BA98CB4
:204F1C00A63100EB81007867022002E0C7F874B000203070DAF80800417811F0030F22D113
:204F3C00007814F072F95FEA00081CD098F8B000032809D1E87F810615D440F02000E87766
:204F5C00B07D40F020000DE068B9E87F81060AD500F0DF00E877707DA0F112017175B07D0B
:204F7C0000F0DF00B075E97F002201F0FC01284608F068FAB8F1000F36D0E87F810633D52D
:204F9C0098F8B00002282FD141462846BDE8F44F14F045B9E87F81060AD500F0DF00E877B1
:204FBC00707DA0F112017175B07D00F0DF00B075DAF808004178C80717D5B07D717D00F0E4
:204FDC00F700891E01F03F0182075CBF891D40F00200420644BF491E00F0BF00B0757175FE
:204FFC00C9F800B086F81880D2E09AF80020E87D121AD2B28907009240F18280012A07F11D
:20501C0040083FD1B86BA98C00EB8100B863A87F00F03F00A8777075E97FB175DAF808205B
:20503C0053785A0703D5801F707501F0FD01B1750023707DE17E00F03F00421898F800002F
:20505C00521CC0F3800192B200F0030014F002FD00F59B70A8841E21A88C90FBF1F18AB210
:20507C00B17D01F0FE01284608F0ECF986F800B0E08B00B1E07E3076E08B00B1206AC9F8F6
:20509C00000085E0B86BA98C022A00EB8100B86326D1E87FC10706D5707D811F7175B07DE3
:2050BC0000F0FE00B0750023707DE17E00F03F00421898F80000521CC0F3800192B200F063
:2050DC00030014F0C7FC00F59B70A8840022B17D01F0FE01284608F0B5F9607FA8F81A00D1
:2050FC00617F0098491C081AC0B201281CDDB96BAA8CA63201EB820179670221317014E0C8
:20511C00B86BA98C00EB8100B863617F0098081AE97FCA06C0B207D5B96BAA8CA63201EB56
:20513C00820179670221317090B395F81F80A97FD9F80020E37E1A44C9F8002028F00108E3
:20515C00DAF808205278530748BF28F00208920748BF28F00808012807D1207F3076C7F81F
:20517C0074B028F0100886F800B001F0C004404614F074FC00F03F002043707586F8168057
:20519C00002208F0FC012846BDE8F84F08F05AB9BDE8F18F2DE9FE4FDFF81883D8F8046049
:2051BC001EB9BDE8F74F14F0BDBB3078DFF80893C24FDFF80CA3012818BF02280AD00428B4
:2051DC001CBF0828102805D0402818BF802800F0A08068E113F0B2FE0028FAD0012011F094
:2051FC0035FA20B1012011F09FFC11F0DBF9082011F02CFA20B1082011F096FC11F0D2F95A
:20521C003078FFF75DFA05009AF8010014BF6C68002400284ED004F0E3FE13F07FFB064636
:20523C0030680090D0F804B0B0798AF80300BCB10099284614F021F8022811D02978012999
:20525C0002D0082963D02EE128B914F073FB00F5E8504C30A060012088F8020011211CE11F
:20527C000098017880290CD10820964938700A78DBF81400012A1ABFD9F8241009780121B7
:20529C0013E007203870B07913F0ECFC0446207BC10748BFB0795DD48A480178DBF81400DC
:2052BC0001291CBFD9F824104978C172B0798AF80200BCE0002D11D02878AE420AD10128E9
:2052DC0018BF082802D1002C03D1F1E0002012F0C3F8E3E0012802D0082816D0E3E0002C67
:2052FC00F3D014F027FB0146A06801F5C241A83112F0AEFD28B914F01DFB00F5E8504C3035
:20531C00A060112038700121C0E0002CDDD00820C0E09AF80100002800F08B8004F060FE2D
:20533C0013F0FCFA054628680090D0F804B09AF8020013F0F3FA0190A8798AF8030031780D
:20535C00402911D1A87913F08DFC0446207BC1070AD5A87913F0E2FA052112F0BBF9207B36
:20537C0000F0FE002073A3E013F0E2FD10F01F0F3AD0012011F06AF920B1012011F0D4FBAC
:20539C0011F010F9082011F061F920B1082011F0CBFB11F007F998F80200FFF791F9064645
:2053BC0074680CB3009913F068FF02281CD03178012902D008290DD013E028B914F0BAFADE
:2053DC0000F5E8504C30A06011203870012188F8021004E0082088F802001221397030469B
:2053FC005DE0002012F038F80198A8421FD0009934480A78802A0BD1082139700078012800
:20541C00DBF814001ABFD9F82410097801210AE007223A7000780128DBF814000EBF0121D4
:20543C00D9F824104978C172A8798AF80200009835E013F07DFD10F01F0F39D0012011F02F
:20545C0005F920B1012011F06FFB11F0ABF8082011F0FCF820B1082011F066FB11F0A2F81E
:20547C0098F80200FFF72CF9054628786C68012802D008280DD01BE0D4B114F05BFA00F5CE
:20549C00E8504C30A06001211120387088F8021004E06CB188F80200122139702846BDE83D
:2054BC00FE4F07F05FBABDE8FE4F002011F0D4BFBDE8F78F54390020DCBE0100C80F002063
:2054DC00780E0020CC0F00202DE9F84F05004ED0DFF8E48298F80000092818BF0A2804D0B4
:2054FC000B281CBF0C280D2801D1212062E1A878002114F003FB040008BF4220F6D0AF4F8F
:20551C00A978DFF8BCA2397098F8000010B9A8788AF8000004F14806F068417801F012011D
:20553C00022902BF706900280C2012D0607AF0B1A07B012804D1B5F8030008B1812816DABE
:20555C006878402813DA204614F0E8F9B06808B907202FE1B561287801281FD1A07B00288D
:20557C001CBF0128042819D19648007808B9122020E195494A78824208BF0920F8D0F06837
:20559C00417848070AD504F1220180204A7F04F1380106F087F808B10B200BE1687808B973
:2055BC00112007E12878DFF82492DFF824B2012840F0AF8000212173F166217A012903D1AF
:2055DC00B16968794871F4E0012000212072E1726173254609F000F96060DBF80000804775
:2055FC007C4A0146106802E06A68426000680028FAD10846D9F80010884769687648486123
:20561C000021387813F0F3FD3978012211200BF088FAF0684178C80605D5284600F07EFE95
:20563C00010024D0C6E0688C0FF014F885F82100F068007813F0E9FD04001CBF94F8B00042
:20565C00002807D0E87F40F02000E877687D40F018006875284613F012FE0100E2D134B1F5
:20567C0094F8B000012804BF284613F0D6FDF0684178C8071CD505F14204A18800291CBF68
:20569C003068002814D022788A4211D20F2014F041F968B1F06801788DF800100F20A288BC
:2056BC00ADF8012021788DF80310694614F02EF998F80000A0B94949087800281EBFF068A5
:2056DC00417811F0030F03D04548006814F01AF9112088F8000001212972FFF75BFD68E0FF
:2056FC00284611F0EDF900281CBFB168002960D0AA7B012A04D02A69808802EB800202E0B4
:20571C00486E2A69821895F8B810104609F0F8FC4FE0207A00284CD0DBF8001088470546E8
:20573C003878012113F063FD00202E4920720A683E7811460B68187A002802BF586D037842
:20575C00B3421FD0C9689142F4D138789AF80010884224D113F0AEFA616888421FD111F040
:20577C00F3FB40F2014014F051F91F491F4A204808600121107808F0B3F9D9F80010284620
:20579C00884716E01B4E30780128DEDD084610F0EDFE13F0C7FA3078411E3170D5E720466C
:2057BC0014F0ACF8D9F8001028468847204610F0C9FC0020BDE8F28FC80F0020D60F00209A
:2057DC00D50F0020D40F0020780E0020B41D0020B01D00204C0F00203D850000880E00202F
:2057FC006C0F0020AC390020480F0020C70F0020C1910000203A00202DE9F043A24CA34991
:20581C00A34E20700A22002008600D23A1484FF4097102704380818085B09F4A9F481060B6
:20583C0037789F480770FF2F7178417008BFFF29B2788270F378C370357905717679467104
:20585C0014D1FF2A08BFFF2B10D1FF2D08BFFF2E0CD194490A7802704B7843708A78827014
:20587C00CB78C3700A790271497941718E4902788E4D8F4E8F4F0A7043784B7082788A7061
:20589C00C378CB7002790A7140798B4A4871FF2028706870A870E8702871687100208749D8
:2058BC000880F06B8649407808708649F06B007808701388844885490380F06BC06C086029
:2058DC008349F06B90F83C0008708249F06B90F83D0008708049F06B90F860000870F06B07
:2058FC00406901797D484A1E0270F06B7C49C0783870F06B8069086008B911F0ADFDF06B57
:20591C007849C069086008B911F0A6FDF06B416D75480C2213F05CF813F0ECFFF06B734964
:20593C00006A086008B911F097FDF06BDFF8C081406AC8F8000008B911F08EFDF06B6D49E8
:20595C00806A086008B911F087FDF06B6A49C06D002840D001220A75F06BC06D0268137801
:20597C00C3F3400048B1F06BC06D02681378C3F3C00000280CBF012002204875002088602E
:20599C00C8600861F06BC06D426890780870F06BC06D4268D0784870F06BC06D42681378B9
:2059BC008B70F06BC06D42685078C870F06BC06D426810790871F06BC06D426850794871B6
:2059DC00F06BC06D426890798871F06BC06D4268D079C87101E000220A7501F097FA072890
:2059FC000AD105F0EFFE20784FF4804108F078F8002011F031FD43E04048016888478146D1
:205A1C000CF0F4FCD8F8000001688847684613F007F8D8F8002004208DF80000694652F834
:205A3C00043F00209847364908600FF053F8F068344A01883878344B014311804846196865
:205A5C0088470C21314813F0F0FB284613F04EFF13F048FF2E4800214FF6FF72016082800F
:205A7C00F06B90F858102B48006813F0F3F80121FF2013F0BCFB20784FF4005108F030F8AF
:205A9C0005B0BDE8F08300BFC70F0020380F0020D04F0050700E00203C0F0020B63F005044
:205ABC00400E0020E8120050500E0020480E0020DCBE0100C40F0020162500209E0F002068
:205ADC00C60F0020D40F00200E3A0020A0390020213A0020223A00201F3A0020CB0F0020E7
:205AFC00200F0020240F002048390020280F00202C0F0020300F0020D4380020B01D00201D
:205B1C00A4390020A00F0020B41D0020FC0D0020800E0020B83900202DE9FE4F01200190AF
:205B3C00A74EA848A84F0278112A02D0122A0DD040E1A64C2078002113F0E0FFA4490546E7
:205B5C00087810B100220A70FCE0002D00F02581A048DFF88482DFF88492386001222178A7
:205B7C0011200AF0DEFF286D696D009141F60802009B9B495C78E30640F1E680044641F274
:205B9C000443B4F802C09C451FBFB4F81AE09E45B4F832C09C454FF4A05A1CD095F80EC0E9
:205BBC00BCF1010F04BFB5F89EE09E4513D0B4F802E041F20A439E451FBFB4F81AB09B4533
:205BDC00B4F832E09E4506D0BCF1010F04BFB5F89EC09C4503D13380C7F800803DE00023C0
:205BFC0040F2FE3B4FF0180C0CFB03FCA444BCF802E0A6F800E0BEF1010FF3D0BEF1000F79
:205C1C005FD0AEF1020EBEF1010F5AD9BEEB0B0E1AD04FF48063BEEB030363D04FF4406BF6
:205C3C00B3EB0B034DD09B1E012B4AD91B1F48D040F2FA3BB3EB0B0379D05B1E6BD0D81E1F
:205C5C0050D0001F4ED077E0B4F800C040F6010EF44536D15B1C022BC4DD386840452FD119
:205C7C00A06C0168A06C01F1080501680879032804BF94F86C0001281AD1D5F80E000028A1
:205C9C001CBF288B002813D095F8220010F0E00F0ED105F11E0013F021FE012808D1688BA7
:205CBC00298BAA8B401C89004843B0EB021F70DBA6F800A0C7F80090A06C016800200871CD
:205CDC0067E0A87B01281CBF0428A6F800A0C7F80090087D0028C0D08868401C00228860EE
:205CFC000A82BAE7A87B012806BF41F20243ACF80230ACF802A03088904215D1CA68088A82
:205D1C004D8A521CCA60401C82B2AA4238BF2A464A82088208E000994A78D1064CBF816CAD
:205D3C00C16E086800210171C7F8009095E7002011F092FB832003E0002011F08DFB8420C9
:205D5C0013F0D8FE012038E0438E41F204455C1B1CD0A41F1AD03380408890420CD1CA685C
:205D7C00088A4C8A521CCA60401C82B2A24238BF22464A82088206E0087D20B18868401C56
:205D9C00002288600A8241F20643C846C7F80080338001211348007809E013F032FA58B1BF
:205DBC00C08811490F4A308039600121107807F097FE01E0002001900198BDE8FE8F00BF31
:205DDC009A0F0020C80F0020480F0020D50F0020243A0020756B0210AD190000C1910000E4
:205DFC00D4380020C70F0020BB1601002DE9F04FDFF84C9204460D460020ADF1440D014696
:205E1C001F460D9016460E9183460F91D9F808A0CDF840B00BF004FB262803D00BF000FBC1
:205E3C00252825D1308843F6070181420ED040F60201814206D0B0F5C15F19D1F07B022853
:205E5C0016DD43E0F07B022812DD3FE096F8240002280DDD307C0F2838D13169C1F3142138
:205E7C00B1F5803F04D00F2830D1B1F5A02F2DD1002D2BD056B328784FF0010808FA00F017
:205E9C001AEA000F22D03046594613F0CCF965606C4DA660A86980B110A800900DA90EAA88
:205EBC000FAB304606F0E2FC0E980B214FF6FF72502311F0D3FBFF2808D013F076F98246BF
:205EDC002878022804DB504613F0B8FD5C46B3E000286DD103F05AFC5B495C4E086840F0DD
:205EFC000200086009A8C9F8006012F02BFF584E5849707809AA0B9005F1E0000EF07CFC55
:205F1C00554905F58E7009AA0EF076FC09A812F071FE192109AB3078504A0A9005F160006A
:205F3C000FF0C2FF4E4A05F17C001A2109AB0FF0BBFF4C495A4605F5AC7013460FF096FC9E
:205F5C0049495A4605F5CE7013460FF08FFC47480068C0F3814030B1454A05F134000421AE
:205F7C005B4611F0CBFBB078012802D10E2008F0A7FD05F1A00012F0B3FC05F1980012F0D8
:205F9C00AFFC594685F8241085F83010072085F84002A960E962374B1970E960052685F8F7
:205FBC003110354A2E610420AA6211F05FFD287805EB8001401CC1F8B840C0B2287050462B
:205FDC0013F03CFD1FB901A812F0D0FC01AF38684FF4FA76E6602060B8694146A062388AE5
:205FFC0061766083F8692063786800280CBF40F6C410594620616061204E266266622176D4
:20601C00E661F86800B12062786900B16062B86800B1E061C82204F1380059460BF0B7FCC0
:20603C0004F15000594611F0EBF915495A4604F1B80013460FF01AFC204611B0BDE8F08F17
:20605C00CC210840E00F002000200940110000E060BD01006185010031DA0000D93B010061
:20607C00ED2E01000D7F010075820100B44F0050E14E01002C3A002059CC000007690100C4
:20609C0069910100F8B5144600254FF48067A04EC21B84B006F18C0334D0921E39D0521EE1
:2060BC0041D0521E47D0521E4DD0521E51D0521E00F07780921E00F07980D21E00F0A98015
:2060DC00521E00F0B480921E00F0BD80521E00F07880521E00F0BE80521E00F0CC80521E21
:2060FC0000F0CF80521E3BD0521E53D0521E48D0921E00F0DA80921E00F0DE80521E00F057
:20611C00E980F8E001290FD12078022817DC7070FBE0012908D12078022810DA0028B070B1
:20613C00F6D17074E2E0012940F0E3802078052805DAF070E9E001296CD12078022880F2B1
:20615C00D8807073E1E0102964D110222146714814E001295ED12078022863DA3071D4E0C6
:20617C00012957D1207802285CDA00287071F6D00120B074602206F12C01184612F028FC7B
:20619C00C3E00129FCD12078022802DAB07112F099FDBAE001293DD12078022842DAF072E0
:2061BC00B3E0012936D12078B073AEE0002931D113F06CFC10B9FBF776F81DE001207075F4
:2061DC00A3E0072926D10622611C02A812F0D2F900950023217801AA02A808F0CDFCB0B90D
:2061FC00F07A10B913F052FC10B1F07A012808D19DF80400FBF768F80546502011F0D8FE55
:20621C001EE0716A9DF80420012088547DE034257BE001296DD1317C2078022903D0C11F37
:20623C000A2902D365E0102863D1F0736DE001295FD1317D20783075002908BF012864D146
:20625C00FAF7BAFF61E0012953D12078032850DCF0745AE001294CD12078022849DC002806
:20627C0047D03074022803BF1020F0730120002013F030FB49E001293BD1207811F0B4FFAE
:20629C0043E07079002834D1602908D1002C30D060222146184612F09BFB012003E001290E
:2062BC0027D134B32078B0742FE0012921D104B320781949087028E0D9B913F0E7FB30B96B
:2062DC00FBF797F80546502011F072FE1DE00120B0751AE001290CD12178022909DA0129E0
:2062FC0004BFB07800280FD07174084612F0F2FC0BE0182509E00F2806DA022904D121889C
:20631C000FF034FB054600E00225284605B0F0BD041C002084370020273A00202DE9F84F18
:20633C000446002000900CB911F096F804F1500569462E68204607F0CBFD08B9072015E161
:20635C00A04641F28839DFF828B2DFF828A2002469684A7A1820604301233718A3401A42AF
:20637C000AD098F80E103AF81100388000211BF80420BA73F97302E040F60100388000219B
:20639C00798007F118007860387B00F0EF00387340F08000387398F80E10012916D1397BF5
:2063BC00002C0CBF0220052001F0F0010843387324B913F0BFFA00F57A6000E04846B860BD
:2063DC00787B00F0F00040F0020017E0002C0CBF0221002100F0F0000843387324B913F0B4
:2063FC00A9FA00F57A6000E00020B860022C797B0CBF0120022001F0F00108437873641C2F
:20641C0006F14800386106F16801032C79619FDB98F80E000024012808F1A80718D108F130
:20643C009C0070631822314612F0D2FA06F118002865C5F85490397801F0F00141F005014B
:20645C003970787800F0F00040F00200787000E07463B068C8F8100047480178397413F036
:20647C00F5FAB064454881690978CA07826912784CBF1F210F2193078269127848BF41F0FD
:20649C00200153078269107848BF41F04001020706F14C0248BF41F080011170547069685C
:2064BC00887C00F0030008F13E0150700B7863F3820050704978947061F3C3005070D470D6
:2064DC0040F0100050703465746508F13800F06598F80E00012818BF042815D0A86830B108
:2064FC00B0F803009070A968D1F805003065E86830B1B0F80300D070E968D1F80500706551
:20651C001F4801684868F06508F13000B065D07D00F0EF00D07540F08000D07500F0F00006
:20653C0040F00600D0752869B0F8030000280EBF144849F64041484370661349087838B151
:20655C005078117840F0400001F0FE01507011700E498B78507859064CBF40F0200000F061
:20657C00DF005070009806F03DFD0020BDE8F28F506E0210F46B02101E3A0020DCBE0100FE
:20659C006C0F002000204E00880E0020C00C00202DE9FE4F8D4802780024521E032A4FF082
:2065BC00010A0AD9103A40F00C81894C2078002113F0A4FA040000F0058114B9002010F034
:2065DC004BFF606DDFF80C824178DFF80C92834DC806216D4CBF886CC86E0622016801F111
:2065FC000806B11C01A812F0F3F93078C0F380108DF800004FF01E0B3778794E07F00F01B8
:20661C0003292FD101A913F009FA002829D0606D807C012818BF032823D1296801A813F03C
:20663C00F9F9FF281DD01BFB00FB286810F80B205844411CD9F8000013F048F998F80010B6
:20665C0088420ED028685844C11DD9F8000001AA13F038F928685844062201A9C01D12F0DF
:20667C00B7F99FE007F00F000528FAD19DF8000001A913F0D3F97F0990B3296801A813F0BB
:20669C00C9F9616DFF2823D0897C022918BF03291BFB00FB0CD1286810F80B205844411C57
:2066BC00D9F8000013F012F998F80010884279D028685844C11DD9F8000001AA13F002F9A8
:2066DC0028685844062201A9C01D12F081F924E04878C2066FD5887CF8B1012862D11CE072
:2066FC003A48017802295DD19DF80010286801AA13F02CFAFF2855D029681BFB00FB01EB47
:20671C000B00427F012A04D00D3013F05BF9002848D040F2014013F079F9606D4178C80682
:20673C0049D530498878410605D5F80703D4206D41F20A4102E0206D41F204414180418338
:20675C00418629480180206D816C0A68816C08680079032802F1080724D1D7F80E0000287B
:20677C001CBF388B00281DD097F8220010F0E00F18D107F11E0013F0B1F8012812D1788BF0
:20679C00398BBA8B401C89004843B0EB021F09DA164A1749174886F800A01160012100787D
:2067BC0007F09EF9606D4178CA0604D5307848B9216D886C01E0216DC86E0168002008712E
:2067DC0000E0A2465046BDE8FE8F00BFC80F0020D50F0020213A00206C0F0020680F0020A6
:2067FC00243A0020C00C00209A0F0020480F0020AD190000C70F00202DE9F04F0746F889F4
:20681C0016468A46ADF1440DC01D80B205460CF013F88F4CFF280BD1284604F0ABFE854230
:20683C0004DD641C207800B905200EE1012000E000206178D9B916B1022E18D1B8B1387AEF
:20685C00FE88BD888DF82C000023009309AAADF82A60E18E94F83300ADF82850032305F0A2
:20687C0011FD9DF834003874BDF83060BE81BD8955B3FE8946B3AD1B4FF000091FFA85F881
:20689C004D463A7C761B202ED4BFB6B22026E06808EB050189B2334601EB423101AA12F072
:2068BC00F5FB0AEB050101A8324611F06FF958B9AD19FE89ADB2AE42E3DCB9F1010F1CBF46
:2068DC004846B88140F0BA8094F83310E58EE06801AA04238846490312F0D8FB019800F097
:2068FC00FF007E2806D140467C2110F0E5FA019800F0FF007C2840F0A580F88942F20102C5
:20691C00C11D8EB2A9198A4240F39A80F9883A7AC1F301238DF83910B98843EA82038DF80F
